{
  "_format": "hh-sol-artifact-1",
  "contractName": "MockAave",
  "sourceName": "contracts/MockAave.sol",
  "abi": [
    {
      "inputs": [
        {
          "internalType": "address",
          "name": "_underlyingAsset",
          "type": "address"
        },
        {
          "internalType": "string",
          "name": "name",
          "type": "string"
        },
        {
          "internalType": "string",
          "name": "symbol",
          "type": "string"
        }
      ],
      "stateMutability": "nonpayable",
      "type": "constructor"
    },
    {
      "anonymous": false,
      "inputs": [
        {
          "indexed": true,
          "internalType": "address",
          "name": "owner",
          "type": "address"
        },
        {
          "indexed": true,
          "internalType": "address",
          "name": "spender",
          "type": "address"
        },
        {
          "indexed": false,
          "internalType": "uint256",
          "name": "value",
          "type": "uint256"
        }
      ],
      "name": "Approval",
      "type": "event"
    },
    {
      "anonymous": false,
      "inputs": [
        {
          "indexed": true,
          "internalType": "address",
          "name": "user",
          "type": "address"
        },
        {
          "indexed": false,
          "internalType": "uint256",
          "name": "amount",
          "type": "uint256"
        },
        {
          "indexed": false,
          "internalType": "uint256",
          "name": "supplyBalance",
          "type": "uint256"
        }
      ],
      "name": "Supply",
      "type": "event"
    },
    {
      "anonymous": false,
      "inputs": [
        {
          "indexed": true,
          "internalType": "address",
          "name": "from",
          "type": "address"
        },
        {
          "indexed": true,
          "internalType": "address",
          "name": "to",
          "type": "address"
        },
        {
          "indexed": false,
          "internalType": "uint256",
          "name": "value",
          "type": "uint256"
        }
      ],
      "name": "Transfer",
      "type": "event"
    },
    {
      "anonymous": false,
      "inputs": [
        {
          "indexed": true,
          "internalType": "address",
          "name": "user",
          "type": "address"
        },
        {
          "indexed": false,
          "internalType": "uint256",
          "name": "amount",
          "type": "uint256"
        },
        {
          "indexed": false,
          "internalType": "uint256",
          "name": "supplyBalance",
          "type": "uint256"
        }
      ],
      "name": "Withdraw",
      "type": "event"
    },
    {
      "inputs": [
        {
          "internalType": "address",
          "name": "owner",
          "type": "address"
        },
        {
          "internalType": "address",
          "name": "spender",
          "type": "address"
        }
      ],
      "name": "allowance",
      "outputs": [
        {
          "internalType": "uint256",
          "name": "",
          "type": "uint256"
        }
      ],
      "stateMutability": "view",
      "type": "function"
    },
    {
      "inputs": [
        {
          "internalType": "address",
          "name": "spender",
          "type": "address"
        },
        {
          "internalType": "uint256",
          "name": "amount",
          "type": "uint256"
        }
      ],
      "name": "approve",
      "outputs": [
        {
          "internalType": "bool",
          "name": "",
          "type": "bool"
        }
      ],
      "stateMutability": "nonpayable",
      "type": "function"
    },
    {
      "inputs": [
        {
          "internalType": "address",
          "name": "account",
          "type": "address"
        }
      ],
      "name": "balanceOf",
      "outputs": [
        {
          "internalType": "uint256",
          "name": "",
          "type": "uint256"
        }
      ],
      "stateMutability": "view",
      "type": "function"
    },
    {
      "inputs": [],
      "name": "decimals",
      "outputs": [
        {
          "internalType": "uint8",
          "name": "",
          "type": "uint8"
        }
      ],
      "stateMutability": "view",
      "type": "function"
    },
    {
      "inputs": [
        {
          "internalType": "address",
          "name": "spender",
          "type": "address"
        },
        {
          "internalType": "uint256",
          "name": "subtractedValue",
          "type": "uint256"
        }
      ],
      "name": "decreaseAllowance",
      "outputs": [
        {
          "internalType": "bool",
          "name": "",
          "type": "bool"
        }
      ],
      "stateMutability": "nonpayable",
      "type": "function"
    },
    {
      "inputs": [],
      "name": "getLiquidityRate",
      "outputs": [
        {
          "internalType": "uint256",
          "name": "",
          "type": "uint256"
        }
      ],
      "stateMutability": "view",
      "type": "function"
    },
    {
      "inputs": [
        {
          "internalType": "address",
          "name": "user",
          "type": "address"
        }
      ],
      "name": "getSupplyBalance",
      "outputs": [
        {
          "internalType": "uint256",
          "name": "",
          "type": "uint256"
        }
      ],
      "stateMutability": "view",
      "type": "function"
    },
    {
      "inputs": [],
      "name": "getTotalSupply",
      "outputs": [
        {
          "internalType": "uint256",
          "name": "",
          "type": "uint256"
        }
      ],
      "stateMutability": "view",
      "type": "function"
    },
    {
      "inputs": [
        {
          "internalType": "address",
          "name": "spender",
          "type": "address"
        },
        {
          "internalType": "uint256",
          "name": "addedValue",
          "type": "uint256"
        }
      ],
      "name": "increaseAllowance",
      "outputs": [
        {
          "internalType": "bool",
          "name": "",
          "type": "bool"
        }
      ],
      "stateMutability": "nonpayable",
      "type": "function"
    },
    {
      "inputs": [],
      "name": "liquidityRate",
      "outputs": [
        {
          "internalType": "uint256",
          "name": "",
          "type": "uint256"
        }
      ],
      "stateMutability": "view",
      "type": "function"
    },
    {
      "inputs": [],
      "name": "name",
      "outputs": [
        {
          "internalType": "string",
          "name": "",
          "type": "string"
        }
      ],
      "stateMutability": "view",
      "type": "function"
    },
    {
      "inputs": [
        {
          "internalType": "uint256",
          "name": "newRate",
          "type": "uint256"
        }
      ],
      "name": "setLiquidityRate",
      "outputs": [],
      "stateMutability": "nonpayable",
      "type": "function"
    },
    {
      "inputs": [
        {
          "internalType": "uint256",
          "name": "amount",
          "type": "uint256"
        }
      ],
      "name": "supply",
      "outputs": [],
      "stateMutability": "nonpayable",
      "type": "function"
    },
    {
      "inputs": [],
      "name": "symbol",
      "outputs": [
        {
          "internalType": "string",
          "name": "",
          "type": "string"
        }
      ],
      "stateMutability": "view",
      "type": "function"
    },
    {
      "inputs": [],
      "name": "totalSupply",
      "outputs": [
        {
          "internalType": "uint256",
          "name": "",
          "type": "uint256"
        }
      ],
      "stateMutability": "view",
      "type": "function"
    },
    {
      "inputs": [],
      "name": "totalSupply_underlying",
      "outputs": [
        {
          "internalType": "uint256",
          "name": "",
          "type": "uint256"
        }
      ],
      "stateMutability": "view",
      "type": "function"
    },
    {
      "inputs": [
        {
          "internalType": "address",
          "name": "to",
          "type": "address"
        },
        {
          "internalType": "uint256",
          "name": "amount",
          "type": "uint256"
        }
      ],
      "name": "transfer",
      "outputs": [
        {
          "internalType": "bool",
          "name": "",
          "type": "bool"
        }
      ],
      "stateMutability": "nonpayable",
      "type": "function"
    },
    {
      "inputs": [
        {
          "internalType": "address",
          "name": "from",
          "type": "address"
        },
        {
          "internalType": "address",
          "name": "to",
          "type": "address"
        },
        {
          "internalType": "uint256",
          "name": "amount",
          "type": "uint256"
        }
      ],
      "name": "transferFrom",
      "outputs": [
        {
          "internalType": "bool",
          "name": "",
          "type": "bool"
        }
      ],
      "stateMutability": "nonpayable",
      "type": "function"
    },
    {
      "inputs": [],
      "name": "underlyingAsset",
      "outputs": [
        {
          "internalType": "contract IERC20",
          "name": "",
          "type": "address"
        }
      ],
      "stateMutability": "view",
      "type": "function"
    },
    {
      "inputs": [
        {
          "internalType": "address",
          "name": "",
          "type": "address"
        }
      ],
      "name": "userSupplies",
      "outputs": [
        {
          "internalType": "uint256",
          "name": "",
          "type": "uint256"
        }
      ],
      "stateMutability": "view",
      "type": "function"
    },
    {
      "inputs": [
        {
          "internalType": "uint256",
          "name": "amount",
          "type": "uint256"
        }
      ],
      "name": "withdraw",
      "outputs": [],
      "stateMutability": "nonpayable",
      "type": "function"
    }
  ],
  "bytecode": "0x60806040523480156200001157600080fd5b50604051620012fe380380620012fe83398101604081905262000034916200014a565b8181600362000044838262000263565b50600462000053828262000263565b5050600580546001600160a01b0319166001600160a01b03959095169490941790935550506101f4600655506200032f565b634e487b7160e01b600052604160045260246000fd5b600082601f830112620000ad57600080fd5b81516001600160401b0380821115620000ca57620000ca62000085565b604051601f8301601f19908116603f01168101908282118183101715620000f557620000f562000085565b816040528381526020925086838588010111156200011257600080fd5b600091505b8382101562000136578582018301518183018401529082019062000117565b600093810190920192909252949350505050565b6000806000606084860312156200016057600080fd5b83516001600160a01b03811681146200017857600080fd5b60208501519093506001600160401b03808211156200019657600080fd5b620001a4878388016200009b565b93506040860151915080821115620001bb57600080fd5b50620001ca868287016200009b565b9150509250925092565b600181811c90821680620001e957607f821691505b6020821081036200020a57634e487b7160e01b600052602260045260246000fd5b50919050565b601f8211156200025e57600081815260208120601f850160051c81016020861015620002395750805b601f850160051c820191505b818110156200025a5782815560010162000245565b5050505b505050565b81516001600160401b038111156200027f576200027f62000085565b6200029781620002908454620001d4565b8462000210565b602080601f831160018114620002cf5760008415620002b65750858301515b600019600386901b1c1916600185901b1785556200025a565b600085815260208120601f198616915b828110156200030057888601518255948401946001909101908401620002df565b50858210156200031f5787850151600019600388901b60f8161c191681555b5050505050600190811b01905550565b610fbf806200033f6000396000f3fe608060405234801561001057600080fd5b50600436106101375760003560e01c806342db2763116100b8578063a457c2d71161007c578063a457c2d714610291578063a9059cbb146102a4578063c4e41b22146102b7578063dd62ed3e146102bf578063f38e266a146102d2578063fd5668bf146102fb57600080fd5b806342db276314610223578063548cbeb01461022c57806370a08231146102355780637158da7c1461025e57806395d89b411461028957600080fd5b80632e1a7d4d116100ff5780632e1a7d4d146101c6578063313ce567146101db57806335403023146101ea57806339509351146101fd5780633a244adf1461021057600080fd5b806306fdde031461013c578063095ea7b31461015a5780630ad3d9b81461017d57806318160ddd146101ab57806323b872dd146101b3575b600080fd5b610144610303565b6040516101519190610db3565b60405180910390f35b61016d610168366004610e1d565b610395565b6040519015158152602001610151565b61019d61018b366004610e47565b60076020526000908152604090205481565b604051908152602001610151565b60025461019d565b61016d6101c1366004610e69565b6103af565b6101d96101d4366004610ea5565b6103d3565b005b60405160128152602001610151565b6101d96101f8366004610ea5565b610613565b61016d61020b366004610e1d565b6107a2565b6101d961021e366004610ea5565b600655565b61019d60085481565b61019d60065481565b61019d610243366004610e47565b6001600160a01b031660009081526020819052604090205490565b600554610271906001600160a01b031681565b6040516001600160a01b039091168152602001610151565b6101446107c4565b61016d61029f366004610e1d565b6107d3565b61016d6102b2366004610e1d565b61084e565b60085461019d565b61019d6102cd366004610ebe565b61085c565b61019d6102e0366004610e47565b6001600160a01b031660009081526007602052604090205490565b60065461019d565b60606003805461031290610ef1565b80601f016020809104026020016040519081016040528092919081815260200182805461033e90610ef1565b801561038b5780601f106103605761010080835404028352916020019161038b565b820191906000526020600020905b81548152906001019060200180831161036e57829003601f168201915b5050505050905090565b6000336103a3818585610887565b60019150505b92915050565b6000336103bd8582856109ac565b6103c8858585610a26565b506001949350505050565b600081116104225760405162461bcd60e51b8152602060048201526017602482015276416d6f756e74206d75737420626520706f73697469766560481b60448201526064015b60405180910390fd5b336000908152602081905260409020548111156104785760405162461bcd60e51b8152602060048201526014602482015273496e73756666696369656e742062616c616e636560601b6044820152606401610419565b336000908152600760205260409020548111156104cd5760405162461bcd60e51b8152602060048201526013602482015272496e73756666696369656e7420737570706c7960681b6044820152606401610419565b6104d73382610bca565b33600090815260076020526040812080548392906104f6908490610f41565b92505081905550806008600082825461050f9190610f41565b909155505060055460405163a9059cbb60e01b8152336004820152602481018390526001600160a01b039091169063a9059cbb906044016020604051808303816000875af1158015610565573d6000803e3d6000fd5b505050506040513d601f19601f820116820180604052508101906105899190610f54565b6105c75760405162461bcd60e51b815260206004820152600f60248201526e151c985b9cd9995c8819985a5b1959608a1b6044820152606401610419565b33600081815260076020908152604091829020548251858152918201527ff279e6a1f5e320cca91135676d9cb6e44ca8a08c0b88342bcdb1144f6511b56891015b60405180910390a250565b6000811161065d5760405162461bcd60e51b8152602060048201526017602482015276416d6f756e74206d75737420626520706f73697469766560481b6044820152606401610419565b6005546040516323b872dd60e01b8152336004820152306024820152604481018390526001600160a01b03909116906323b872dd906064016020604051808303816000875af11580156106b4573d6000803e3d6000fd5b505050506040513d601f19601f820116820180604052508101906106d89190610f54565b6107165760405162461bcd60e51b815260206004820152600f60248201526e151c985b9cd9995c8819985a5b1959608a1b6044820152606401610419565b6107203382610cf4565b336000908152600760205260408120805483929061073f908490610f76565b9250508190555080600860008282546107589190610f76565b909155505033600081815260076020908152604091829020548251858152918201527f9d624b01705090e0c402c84f2bdef9c498399a009cee9a4e08ab004bae4471219101610608565b6000336103a38185856107b5838361085c565b6107bf9190610f76565b610887565b60606004805461031290610ef1565b600033816107e1828661085c565b9050838110156108415760405162461bcd60e51b815260206004820152602560248201527f45524332303a2064656372656173656420616c6c6f77616e63652062656c6f77604482015264207a65726f60d81b6064820152608401610419565b6103c88286868403610887565b6000336103a3818585610a26565b6001600160a01b03918216600090815260016020908152604080832093909416825291909152205490565b6001600160a01b0383166108e95760405162461bcd60e51b8152602060048201526024808201527f45524332303a20617070726f76652066726f6d20746865207a65726f206164646044820152637265737360e01b6064820152608401610419565b6001600160a01b03821661094a5760405162461bcd60e51b815260206004820152602260248201527f45524332303a20617070726f766520746f20746865207a65726f206164647265604482015261737360f01b6064820152608401610419565b6001600160a01b0383811660008181526001602090815260408083209487168084529482529182902085905590518481527f8c5be1e5ebec7d5bd14f71427d1e84f3dd0314c0f7b2291e5b200ac8c7c3b92591015b60405180910390a3505050565b60006109b8848461085c565b90506000198114610a205781811015610a135760405162461bcd60e51b815260206004820152601d60248201527f45524332303a20696e73756666696369656e7420616c6c6f77616e63650000006044820152606401610419565b610a208484848403610887565b50505050565b6001600160a01b038316610a8a5760405162461bcd60e51b815260206004820152602560248201527f45524332303a207472616e736665722066726f6d20746865207a65726f206164604482015264647265737360d81b6064820152608401610419565b6001600160a01b038216610aec5760405162461bcd60e51b815260206004820152602360248201527f45524332303a207472616e7366657220746f20746865207a65726f206164647260448201526265737360e81b6064820152608401610419565b6001600160a01b03831660009081526020819052604090205481811015610b645760405162461bcd60e51b815260206004820152602660248201527f45524332303a207472616e7366657220616d6f756e7420657863656564732062604482015265616c616e636560d01b6064820152608401610419565b6001600160a01b03848116600081815260208181526040808320878703905593871680835291849020805487019055925185815290927fddf252ad1be2c89b69c2b068fc378daa952ba7f163c4a11628f55a4df523b3ef910160405180910390a3610a20565b6001600160a01b038216610c2a5760405162461bcd60e51b815260206004820152602160248201527f45524332303a206275726e2066726f6d20746865207a65726f206164647265736044820152607360f81b6064820152608401610419565b6001600160a01b03821660009081526020819052604090205481811015610c9e5760405162461bcd60e51b815260206004820152602260248201527f45524332303a206275726e20616d6f756e7420657863656564732062616c616e604482015261636560f01b6064820152608401610419565b6001600160a01b0383166000818152602081815260408083208686039055600280548790039055518581529192917fddf252ad1be2c89b69c2b068fc378daa952ba7f163c4a11628f55a4df523b3ef910161099f565b6001600160a01b038216610d4a5760405162461bcd60e51b815260206004820152601f60248201527f45524332303a206d696e7420746f20746865207a65726f2061646472657373006044820152606401610419565b8060026000828254610d5c9190610f76565b90915550506001600160a01b038216600081815260208181526040808320805486019055518481527fddf252ad1be2c89b69c2b068fc378daa952ba7f163c4a11628f55a4df523b3ef910160405180910390a35050565b600060208083528351808285015260005b81811015610de057858101830151858201604001528201610dc4565b506000604082860101526040601f19601f8301168501019250505092915050565b80356001600160a01b0381168114610e1857600080fd5b919050565b60008060408385031215610e3057600080fd5b610e3983610e01565b946020939093013593505050565b600060208284031215610e5957600080fd5b610e6282610e01565b9392505050565b600080600060608486031215610e7e57600080fd5b610e8784610e01565b9250610e9560208501610e01565b9150604084013590509250925092565b600060208284031215610eb757600080fd5b5035919050565b60008060408385031215610ed157600080fd5b610eda83610e01565b9150610ee860208401610e01565b90509250929050565b600181811c90821680610f0557607f821691505b602082108103610f2557634e487b7160e01b600052602260045260246000fd5b50919050565b634e487b7160e01b600052601160045260246000fd5b818103818111156103a9576103a9610f2b565b600060208284031215610f6657600080fd5b81518015158114610e6257600080fd5b808201808211156103a9576103a9610f2b56fea264697066735822122028ea14a24297a7cc8910811309d3b98fe57ac326745f08efa7a90846f9c60e1664736f6c63430008130033",
  "linkReferences": {},
  "deployedLinkReferences": {}
}