{
  "_format": "hh3-artifact-1",
  "contractName": "Vault",
  "sourceName": "contracts/Vault.sol",
  "abi": [
    {
      "anonymous": false,
      "inputs": [
        {
          "indexed": true,
          "internalType": "address",
          "name": "user",
          "type": "address"
        },
        {
          "indexed": false,
          "internalType": "uint256",
          "name": "amount",
          "type": "uint256"
        },
        {
          "indexed": false,
          "internalType": "uint256",
          "name": "timestamp",
          "type": "uint256"
        }
      ],
      "name": "Deposit",
      "type": "event"
    },
    {
      "anonymous": false,
      "inputs": [
        {
          "indexed": true,
          "internalType": "address",
          "name": "user",
          "type": "address"
        },
        {
          "indexed": false,
          "internalType": "uint256",
          "name": "amount",
          "type": "uint256"
        },
        {
          "indexed": false,
          "internalType": "uint256",
          "name": "timestamp",
          "type": "uint256"
        }
      ],
      "name": "Withdraw",
      "type": "event"
    },
    {
      "inputs": [
        {
          "internalType": "address",
          "name": "",
          "type": "address"
        }
      ],
      "name": "balances",
      "outputs": [
        {
          "internalType": "uint256",
          "name": "",
          "type": "uint256"
        }
      ],
      "stateMutability": "view",
      "type": "function"
    },
    {
      "inputs": [],
      "name": "deposit",
      "outputs": [],
      "stateMutability": "payable",
      "type": "function"
    },
    {
      "inputs": [],
      "name": "emergencyWithdraw",
      "outputs": [],
      "stateMutability": "nonpayable",
      "type": "function"
    },
    {
      "inputs": [
        {
          "internalType": "address",
          "name": "user",
          "type": "address"
        }
      ],
      "name": "getBalance",
      "outputs": [
        {
          "internalType": "uint256",
          "name": "",
          "type": "uint256"
        }
      ],
      "stateMutability": "view",
      "type": "function"
    },
    {
      "inputs": [],
      "name": "getTotalBalance",
      "outputs": [
        {
          "internalType": "uint256",
          "name": "",
          "type": "uint256"
        }
      ],
      "stateMutability": "view",
      "type": "function"
    },
    {
      "inputs": [],
      "name": "totalDeposits",
      "outputs": [
        {
          "internalType": "uint256",
          "name": "",
          "type": "uint256"
        }
      ],
      "stateMutability": "view",
      "type": "function"
    },
    {
      "inputs": [
        {
          "internalType": "uint256",
          "name": "amount",
          "type": "uint256"
        }
      ],
      "name": "withdraw",
      "outputs": [],
      "stateMutability": "nonpayable",
      "type": "function"
    }
  ],
  "bytecode": "0x608060405234801561001057600080fd5b50610b9b806100206000396000f3fe6080604052600436106100705760003560e01c80637d8820971161004e5780637d88209714610106578063d0e30db014610131578063db2e21bc1461013b578063f8b2cb4f1461015257610070565b806312b583491461007557806327e235e3146100a05780632e1a7d4d146100dd575b600080fd5b34801561008157600080fd5b5061008a61018f565b604051610097919061072e565b60405180910390f35b3480156100ac57600080fd5b506100c760048036038101906100c291906107ac565b610197565b6040516100d4919061072e565b60405180910390f35b3480156100e957600080fd5b5061010460048036038101906100ff9190610805565b6101af565b005b34801561011257600080fd5b5061011b6103e1565b604051610128919061072e565b60405180910390f35b6101396103e7565b005b34801561014757600080fd5b506101506104ea565b005b34801561015e57600080fd5b50610179600480360381019061017491906107ac565b6106cd565b604051610186919061072e565b60405180910390f35b600047905090565b60006020528060005260406000206000915090505481565b600081116101f2576040517f08c379a00000000000000000000000000000000000000000000000000000000081526004016101e99061088f565b60405180910390fd5b806000803373ffffffffffffffffffffffffffffffffffffffff1673ffffffffffffffffffffffffffffffffffffffff168152602001908152602001600020541015610273576040517f08c379a000000000000000000000000000000000000000000000000000000000815260040161026a906108fb565b60405180910390fd5b806000803373ffffffffffffffffffffffffffffffffffffffff1673ffffffffffffffffffffffffffffffffffffffff16815260200190815260200160002060008282546102c1919061094a565b9250508190555080600160008282546102da919061094a565b9250508190555060003373ffffffffffffffffffffffffffffffffffffffff1682604051610307906109af565b60006040518083038185875af1925050503d8060008114610344576040519150601f19603f3d011682016040523d82523d6000602084013e610349565b606091505b505090508061038d576040517f08c379a000000000000000000000000000000000000000000000000000000000815260040161038490610a10565b60405180910390fd5b3373ffffffffffffffffffffffffffffffffffffffff167ff279e6a1f5e320cca91135676d9cb6e44ca8a08c0b88342bcdb1144f6511b56883426040516103d5929190610a30565b60405180910390a25050565b60015481565b6000341161042a576040517f08c379a000000000000000000000000000000000000000000000000000000000815260040161042190610aa5565b60405180910390fd5b346000803373ffffffffffffffffffffffffffffffffffffffff1673ffffffffffffffffffffffffffffffffffffffff16815260200190815260200160002060008282546104789190610ac5565b9250508190555034600160008282546104919190610ac5565b925050819055503373ffffffffffffffffffffffffffffffffffffffff167f90890809c654f11d6e72a28fa60149770a0d11ec6c92319d6ceb2bb0a4ea1a1534426040516104e0929190610a30565b60405180910390a2565b60008060003373ffffffffffffffffffffffffffffffffffffffff1673ffffffffffffffffffffffffffffffffffffffff16815260200190815260200160002054905060008111610570576040517f08c379a000000000000000000000000000000000000000000000000000000000815260040161056790610b45565b60405180910390fd5b60008060003373ffffffffffffffffffffffffffffffffffffffff1673ffffffffffffffffffffffffffffffffffffffff1681526020019081526020016000208190555080600160008282546105c6919061094a565b9250508190555060003373ffffffffffffffffffffffffffffffffffffffff16826040516105f3906109af565b60006040518083038185875af1925050503d8060008114610630576040519150601f19603f3d011682016040523d82523d6000602084013e610635565b606091505b5050905080610679576040517f08c379a000000000000000000000000000000000000000000000000000000000815260040161067090610a10565b60405180910390fd5b3373ffffffffffffffffffffffffffffffffffffffff167ff279e6a1f5e320cca91135676d9cb6e44ca8a08c0b88342bcdb1144f6511b56883426040516106c1929190610a30565b60405180910390a25050565b60008060008373ffffffffffffffffffffffffffffffffffffffff1673ffffffffffffffffffffffffffffffffffffffff168152602001908152602001600020549050919050565b6000819050919050565b61072881610715565b82525050565b6000602082019050610743600083018461071f565b92915050565b600080fd5b600073ffffffffffffffffffffffffffffffffffffffff82169050919050565b60006107798261074e565b9050919050565b6107898161076e565b811461079457600080fd5b50565b6000813590506107a681610780565b92915050565b6000602082840312156107c2576107c1610749565b5b60006107d084828501610797565b91505092915050565b6107e281610715565b81146107ed57600080fd5b50565b6000813590506107ff816107d9565b92915050565b60006020828403121561081b5761081a610749565b5b6000610829848285016107f0565b91505092915050565b600082825260208201905092915050565b7f416d6f756e74206d7573742062652067726561746572207468616e2030000000600082015250565b6000610879601d83610832565b915061088482610843565b602082019050919050565b600060208201905081810360008301526108a88161086c565b9050919050565b7f496e73756666696369656e742062616c616e6365000000000000000000000000600082015250565b60006108e5601483610832565b91506108f0826108af565b602082019050919050565b60006020820190508181036000830152610914816108d8565b9050919050565b7f4e487b7100000000000000000000000000000000000000000000000000000000600052601160045260246000fd5b600061095582610715565b915061096083610715565b92508282039050818111156109785761097761091b565b5b92915050565b600081905092915050565b50565b600061099960008361097e565b91506109a482610989565b600082019050919050565b60006109ba8261098c565b9150819050919050565b7f5472616e73666572206661696c65640000000000000000000000000000000000600082015250565b60006109fa600f83610832565b9150610a05826109c4565b602082019050919050565b60006020820190508181036000830152610a29816109ed565b9050919050565b6000604082019050610a45600083018561071f565b610a52602083018461071f565b9392505050565b7f4d757374206465706f7369742045544800000000000000000000000000000000600082015250565b6000610a8f601083610832565b9150610a9a82610a59565b602082019050919050565b60006020820190508181036000830152610abe81610a82565b9050919050565b6000610ad082610715565b9150610adb83610715565b9250828201905080821115610af357610af261091b565b5b92915050565b7f4e6f2062616c616e636520746f20776974686472617700000000000000000000600082015250565b6000610b2f601683610832565b9150610b3a82610af9565b602082019050919050565b60006020820190508181036000830152610b5e81610b22565b905091905056fea26469706673582212207712e6a7cd284bd2780c421e729ec068aa4fcba76422a52386e8ad084368d6f364736f6c63430008130033",
  "linkReferences": {},
  "deployedLinkReferences": {},
  "immutableReferences": {},
  "inputSourceName": "project/contracts/Vault.sol",
  "buildInfoId": "solc-0_8_19-9a84b9409d26dfab035bb9b3757e0c2e0a531097"
}