{
  "_format": "hh-sol-artifact-1",
  "contractName": "AutoFiVault",
  "sourceName": "contracts/AutoFiVault.sol",
  "abi": [
    {
      "inputs": [
        {
          "internalType": "address",
          "name": "_asset",
          "type": "address"
        },
        {
          "internalType": "address",
          "name": "_rewardToken",
          "type": "address"
        },
        {
          "internalType": "address",
          "name": "_strategyManager",
          "type": "address"
        },
        {
          "internalType": "address",
          "name": "_rebalanceExecutor",
          "type": "address"
        }
      ],
      "stateMutability": "nonpayable",
      "type": "constructor"
    },
    {
      "anonymous": false,
      "inputs": [
        {
          "indexed": true,
          "internalType": "address",
          "name": "user",
          "type": "address"
        },
        {
          "indexed": false,
          "internalType": "uint256",
          "name": "amount",
          "type": "uint256"
        },
        {
          "indexed": false,
          "internalType": "uint256",
          "name": "shares",
          "type": "uint256"
        }
      ],
      "name": "Deposit",
      "type": "event"
    },
    {
      "anonymous": false,
      "inputs": [
        {
          "indexed": true,
          "internalType": "address",
          "name": "previousOwner",
          "type": "address"
        },
        {
          "indexed": true,
          "internalType": "address",
          "name": "newOwner",
          "type": "address"
        }
      ],
      "name": "OwnershipTransferred",
      "type": "event"
    },
    {
      "anonymous": false,
      "inputs": [
        {
          "indexed": false,
          "internalType": "address",
          "name": "account",
          "type": "address"
        }
      ],
      "name": "Paused",
      "type": "event"
    },
    {
      "anonymous": false,
      "inputs": [
        {
          "indexed": false,
          "internalType": "uint256",
          "name": "timestamp",
          "type": "uint256"
        }
      ],
      "name": "RebalanceExecuted",
      "type": "event"
    },
    {
      "anonymous": false,
      "inputs": [
        {
          "indexed": false,
          "internalType": "uint256",
          "name": "totalRewards",
          "type": "uint256"
        }
      ],
      "name": "RewardsDistributed",
      "type": "event"
    },
    {
      "anonymous": false,
      "inputs": [
        {
          "indexed": true,
          "internalType": "address",
          "name": "strategy",
          "type": "address"
        },
        {
          "indexed": false,
          "internalType": "uint256",
          "name": "amount",
          "type": "uint256"
        }
      ],
      "name": "StrategyExecuted",
      "type": "event"
    },
    {
      "anonymous": false,
      "inputs": [
        {
          "indexed": false,
          "internalType": "address",
          "name": "account",
          "type": "address"
        }
      ],
      "name": "Unpaused",
      "type": "event"
    },
    {
      "anonymous": false,
      "inputs": [
        {
          "indexed": true,
          "internalType": "address",
          "name": "user",
          "type": "address"
        },
        {
          "indexed": false,
          "internalType": "uint256",
          "name": "amount",
          "type": "uint256"
        },
        {
          "indexed": false,
          "internalType": "uint256",
          "name": "shares",
          "type": "uint256"
        }
      ],
      "name": "Withdraw",
      "type": "event"
    },
    {
      "inputs": [],
      "name": "LOCK_PERIOD",
      "outputs": [
        {
          "internalType": "uint256",
          "name": "",
          "type": "uint256"
        }
      ],
      "stateMutability": "view",
      "type": "function"
    },
    {
      "inputs": [],
      "name": "MIN_DEPOSIT",
      "outputs": [
        {
          "internalType": "uint256",
          "name": "",
          "type": "uint256"
        }
      ],
      "stateMutability": "view",
      "type": "function"
    },
    {
      "inputs": [],
      "name": "asset",
      "outputs": [
        {
          "internalType": "contract IERC20",
          "name": "",
          "type": "address"
        }
      ],
      "stateMutability": "view",
      "type": "function"
    },
    {
      "inputs": [
        {
          "internalType": "address",
          "name": "",
          "type": "address"
        }
      ],
      "name": "balances",
      "outputs": [
        {
          "internalType": "uint256",
          "name": "",
          "type": "uint256"
        }
      ],
      "stateMutability": "view",
      "type": "function"
    },
    {
      "inputs": [
        {
          "internalType": "uint256",
          "name": "amount",
          "type": "uint256"
        }
      ],
      "name": "deposit",
      "outputs": [
        {
          "internalType": "uint256",
          "name": "shares",
          "type": "uint256"
        }
      ],
      "stateMutability": "nonpayable",
      "type": "function"
    },
    {
      "inputs": [
        {
          "internalType": "uint256",
          "name": "totalRewards",
          "type": "uint256"
        }
      ],
      "name": "distributeRewards",
      "outputs": [],
      "stateMutability": "nonpayable",
      "type": "function"
    },
    {
      "inputs": [
        {
          "internalType": "uint256",
          "name": "amount",
          "type": "uint256"
        }
      ],
      "name": "emergencyWithdraw",
      "outputs": [],
      "stateMutability": "nonpayable",
      "type": "function"
    },
    {
      "inputs": [
        {
          "internalType": "address",
          "name": "strategy",
          "type": "address"
        },
        {
          "internalType": "uint256",
          "name": "amount",
          "type": "uint256"
        }
      ],
      "name": "executeStrategy",
      "outputs": [],
      "stateMutability": "nonpayable",
      "type": "function"
    },
    {
      "inputs": [],
      "name": "getTVL",
      "outputs": [
        {
          "internalType": "uint256",
          "name": "tvl",
          "type": "uint256"
        }
      ],
      "stateMutability": "view",
      "type": "function"
    },
    {
      "inputs": [
        {
          "internalType": "address",
          "name": "user",
          "type": "address"
        }
      ],
      "name": "getUserShare",
      "outputs": [
        {
          "internalType": "uint256",
          "name": "share",
          "type": "uint256"
        }
      ],
      "stateMutability": "view",
      "type": "function"
    },
    {
      "inputs": [
        {
          "internalType": "address",
          "name": "user",
          "type": "address"
        }
      ],
      "name": "isLocked",
      "outputs": [
        {
          "internalType": "bool",
          "name": "locked",
          "type": "bool"
        }
      ],
      "stateMutability": "view",
      "type": "function"
    },
    {
      "inputs": [
        {
          "internalType": "address",
          "name": "",
          "type": "address"
        }
      ],
      "name": "lastDepositTime",
      "outputs": [
        {
          "internalType": "uint256",
          "name": "",
          "type": "uint256"
        }
      ],
      "stateMutability": "view",
      "type": "function"
    },
    {
      "inputs": [],
      "name": "owner",
      "outputs": [
        {
          "internalType": "address",
          "name": "",
          "type": "address"
        }
      ],
      "stateMutability": "view",
      "type": "function"
    },
    {
      "inputs": [],
      "name": "pause",
      "outputs": [],
      "stateMutability": "nonpayable",
      "type": "function"
    },
    {
      "inputs": [],
      "name": "paused",
      "outputs": [
        {
          "internalType": "bool",
          "name": "",
          "type": "bool"
        }
      ],
      "stateMutability": "view",
      "type": "function"
    },
    {
      "inputs": [
        {
          "internalType": "address[]",
          "name": "strategies",
          "type": "address[]"
        },
        {
          "internalType": "uint256[]",
          "name": "amounts",
          "type": "uint256[]"
        }
      ],
      "name": "rebalance",
      "outputs": [],
      "stateMutability": "nonpayable",
      "type": "function"
    },
    {
      "inputs": [],
      "name": "rebalanceExecutor",
      "outputs": [
        {
          "internalType": "address",
          "name": "",
          "type": "address"
        }
      ],
      "stateMutability": "view",
      "type": "function"
    },
    {
      "inputs": [],
      "name": "renounceOwnership",
      "outputs": [],
      "stateMutability": "nonpayable",
      "type": "function"
    },
    {
      "inputs": [],
      "name": "rewardToken",
      "outputs": [
        {
          "internalType": "contract IERC20",
          "name": "",
          "type": "address"
        }
      ],
      "stateMutability": "view",
      "type": "function"
    },
    {
      "inputs": [
        {
          "internalType": "address",
          "name": "newRebalanceExecutor",
          "type": "address"
        }
      ],
      "name": "setRebalanceExecutor",
      "outputs": [],
      "stateMutability": "nonpayable",
      "type": "function"
    },
    {
      "inputs": [
        {
          "internalType": "address",
          "name": "newStrategyManager",
          "type": "address"
        }
      ],
      "name": "setStrategyManager",
      "outputs": [],
      "stateMutability": "nonpayable",
      "type": "function"
    },
    {
      "inputs": [],
      "name": "strategyManager",
      "outputs": [
        {
          "internalType": "address",
          "name": "",
          "type": "address"
        }
      ],
      "stateMutability": "view",
      "type": "function"
    },
    {
      "inputs": [],
      "name": "totalAssets",
      "outputs": [
        {
          "internalType": "uint256",
          "name": "",
          "type": "uint256"
        }
      ],
      "stateMutability": "view",
      "type": "function"
    },
    {
      "inputs": [],
      "name": "totalShares",
      "outputs": [
        {
          "internalType": "uint256",
          "name": "",
          "type": "uint256"
        }
      ],
      "stateMutability": "view",
      "type": "function"
    },
    {
      "inputs": [
        {
          "internalType": "address",
          "name": "newOwner",
          "type": "address"
        }
      ],
      "name": "transferOwnership",
      "outputs": [],
      "stateMutability": "nonpayable",
      "type": "function"
    },
    {
      "inputs": [],
      "name": "unpause",
      "outputs": [],
      "stateMutability": "nonpayable",
      "type": "function"
    },
    {
      "inputs": [
        {
          "internalType": "uint256",
          "name": "shares",
          "type": "uint256"
        }
      ],
      "name": "withdraw",
      "outputs": [
        {
          "internalType": "uint256",
          "name": "amount",
          "type": "uint256"
        }
      ],
      "stateMutability": "nonpayable",
      "type": "function"
    }
  ],
  "bytecode": "0x60c06040523480156200001157600080fd5b5060405162001831380380620018318339810160408190526200003491620000fd565b600160005562000044336200008e565b6001805460ff60a01b191690556001600160a01b0393841660805291831660a052600680549184166001600160a01b0319928316179055600780549290931691161790556200015a565b600180546001600160a01b038381166001600160a01b0319831681179093556040519116919082907f8be0079c531659141344cd1fd0a4f28419497f9722a3daafe3b4186f6b6457e090600090a35050565b80516001600160a01b0381168114620000f857600080fd5b919050565b600080600080608085870312156200011457600080fd5b6200011f85620000e0565b93506200012f60208601620000e0565b92506200013f60408601620000e0565b91506200014f60608601620000e0565b905092959194509250565b60805160a051611687620001aa600039600081816103b80152610b740152600081816102410152818161054601528181610860015281816109a901528181610d74015261103501526116876000f3fe608060405234801561001057600080fd5b50600436106101a95760003560e01c80635c966646116100f9578063bbbaee4c11610097578063d77ab72d11610071578063d77ab72d14610382578063e1e158a514610395578063f2fde38b146103a0578063f7c618c1146103b357600080fd5b8063bbbaee4c14610349578063bcada9b61461035c578063ce6e13ff1461036f57600080fd5b80638456cb59116100d35780638456cb59146103155780638da5cb5b1461031d57806397b3fcaa1461032e578063b6b55f251461033657600080fd5b80635c966646146102e85780635c975abb146102fb578063715018a61461030d57600080fd5b806338d52e0f116101665780633f4ba83a116101405780633f4ba83a146102975780634a4fbeec1461029f5780635312ea8e146102c257806359974e38146102d557600080fd5b806338d52e0f1461023c57806339b70e381461027b5780633a98ef391461028e57600080fd5b806301e1d114146101ae57806302527753146101ca5780631820cabb146101ea57806327e235e3146101f45780632be01190146102145780632e1a7d4d14610229575b600080fd5b6101b760045481565b6040519081526020015b60405180910390f35b6101b76101d836600461146e565b60036020526000908152604090205481565b6101b762093a8081565b6101b761020236600461146e565b60026020526000908152604090205481565b6102276102223660046114dc565b6103da565b005b6101b7610237366004611548565b6106bd565b6102637f000000000000000000000000000000000000000000000000000000000000000081565b6040516001600160a01b0390911681526020016101c1565b600654610263906001600160a01b031681565b6101b760055481565b61022761095e565b6102b26102ad36600461146e565b610970565b60405190151581526020016101c1565b6102276102d0366004611548565b61099f565b6102276102e3366004611548565b610aa8565b6102276102f636600461146e565b610c64565b600154600160a01b900460ff166102b2565b610227610cd6565b610227610ce8565b6001546001600160a01b0316610263565b6004546101b7565b6101b7610344366004611548565b610cf8565b6101b761035736600461146e565b610ed6565b61022761036a366004611561565b610f22565b61022761037d36600461146e565b611135565b600754610263906001600160a01b031681565b6101b76305f5e10081565b6102276103ae36600461146e565b6111a7565b6102637f000000000000000000000000000000000000000000000000000000000000000081565b6007546001600160a01b031633146104395760405162461bcd60e51b815260206004820152601760248201527f4f6e6c7920726562616c616e6365206578656375746f7200000000000000000060448201526064015b60405180910390fd5b8281146104815760405162461bcd60e51b8152602060048201526016602482015275082e4e4c2f2e640d8cadccee8d040dad2e6dac2e8c6d60531b6044820152606401610430565b6000805b828110156104c55783838281811061049f5761049f61158b565b90506020020135826104b191906115b7565b9150806104bd816115ca565b915050610485565b506004548111156105185760405162461bcd60e51b815260206004820152601a60248201527f496e73756666696369656e74207661756c742062616c616e63650000000000006044820152606401610430565b60005b848110156106825760008484838181106105375761053761158b565b905060200201351115610670577f00000000000000000000000000000000000000000000000000000000000000006001600160a01b031663a9059cbb8787848181106105855761058561158b565b905060200201602081019061059a919061146e565b8686858181106105ac576105ac61158b565b6040516001600160e01b031960e087901b1681526001600160a01b03909416600485015260200291909101356024830152506044016020604051808303816000875af1158015610600573d6000803e3d6000fd5b505050506040513d601f19601f8201168201806040525081019061062491906115e3565b6106705760405162461bcd60e51b815260206004820152601960248201527f526562616c616e6365207472616e73666572206661696c6564000000000000006044820152606401610430565b8061067a816115ca565b91505061051b565b506040514281527f340a984992aa660042339165cf7d2b849c73974a791a427d92cf5d5d04293bd89060200160405180910390a15050505050565b60006106c761121d565b336000818152600360205260409020546106e59062093a80906115b7565b4210156107275760405162461bcd60e51b815260206004820152601060248201526f119d5b991cc8185c99481b1bd8dad95960821b6044820152606401610430565b3360009081526002602052604090205483111561077d5760405162461bcd60e51b8152602060048201526014602482015273496e73756666696369656e742062616c616e636560601b6044820152606401610430565b6005548311156107cf5760405162461bcd60e51b815260206004820152601960248201527f496e73756666696369656e7420746f74616c20736861726573000000000000006044820152606401610430565b6005546004546107df9085611605565b6107e9919061161c565b3360009081526002602052604081208054929450859290919061080d90849061163e565b925050819055508260056000828254610826919061163e565b92505081905550816004600082825461083f919061163e565b909155505060405163a9059cbb60e01b8152336004820152602481018390527f00000000000000000000000000000000000000000000000000000000000000006001600160a01b03169063a9059cbb906044016020604051808303816000875af11580156108b1573d6000803e3d6000fd5b505050506040513d601f19601f820116820180604052508101906108d591906115e3565b6109135760405162461bcd60e51b815260206004820152600f60248201526e151c985b9cd9995c8819985a5b1959608a1b6044820152606401610430565b604080518381526020810185905233917ff279e6a1f5e320cca91135676d9cb6e44ca8a08c0b88342bcdb1144f6511b568910160405180910390a2506109596001600055565b919050565b610966611276565b61096e6112d0565b565b6001600160a01b0381166000908152600360205260408120546109979062093a80906115b7565b421092915050565b6109a7611276565b7f00000000000000000000000000000000000000000000000000000000000000006001600160a01b031663a9059cbb6109e86001546001600160a01b031690565b6040516001600160e01b031960e084901b1681526001600160a01b039091166004820152602481018490526044016020604051808303816000875af1158015610a35573d6000803e3d6000fd5b505050506040513d601f19601f82011682018060405250810190610a5991906115e3565b610aa55760405162461bcd60e51b815260206004820152601b60248201527f456d657267656e6379207769746864726177616c206661696c656400000000006044820152606401610430565b50565b610ab0611276565b60008111610b005760405162461bcd60e51b815260206004820152601860248201527f4e6f207265776172647320746f206469737472696275746500000000000000006044820152606401610430565b600060055411610b525760405162461bcd60e51b815260206004820152601a60248201527f4e6f2073686172657320746f206469737472696275746520746f0000000000006044820152606401610430565b6040516323b872dd60e01b8152336004820152306024820152604481018290527f00000000000000000000000000000000000000000000000000000000000000006001600160a01b0316906323b872dd906064016020604051808303816000875af1158015610bc5573d6000803e3d6000fd5b505050506040513d601f19601f82011682018060405250810190610be991906115e3565b610c2e5760405162461bcd60e51b815260206004820152601660248201527514995dd85c99081d1c985b9cd9995c8819985a5b195960521b6044820152606401610430565b6040518181527f6d1c76d614228b523baa4dcd9539e2c713b54ff4ab3ff2d1627e7f6cd32be4429060200160405180910390a150565b610c6c611276565b6001600160a01b038116610cb45760405162461bcd60e51b815260206004820152600f60248201526e496e76616c6964206164647265737360881b6044820152606401610430565b600680546001600160a01b0319166001600160a01b0392909216919091179055565b610cde611276565b61096e6000611325565b610cf0611276565b61096e611377565b6000610d0261121d565b610d0a6113ba565b6305f5e100821015610d525760405162461bcd60e51b815260206004820152601160248201527011195c1bdcda5d081d1bdbc81cdb585b1b607a1b6044820152606401610430565b6040516323b872dd60e01b8152336004820152306024820152604481018390527f00000000000000000000000000000000000000000000000000000000000000006001600160a01b0316906323b872dd906064016020604051808303816000875af1158015610dc5573d6000803e3d6000fd5b505050506040513d601f19601f82011682018060405250810190610de991906115e3565b610e275760405162461bcd60e51b815260206004820152600f60248201526e151c985b9cd9995c8819985a5b1959608a1b6044820152606401610430565b5033600090815260026020526040812080548392839291610e499084906115b7565b925050819055508060056000828254610e6291906115b7565b925050819055508160046000828254610e7b91906115b7565b90915550503360008181526003602090815260409182902042905581518581529081018490527f90890809c654f11d6e72a28fa60149770a0d11ec6c92319d6ceb2bb0a4ea1a15910160405180910390a26109596001600055565b6000600554600003610eea57506000919050565b6005546001600160a01b038316600090815260026020526040902054610f1290612710611605565b610f1c919061161c565b92915050565b6006546001600160a01b03163314610f745760405162461bcd60e51b815260206004820152601560248201527427b7363c9039ba3930ba32b3bc9036b0b730b3b2b960591b6044820152606401610430565b600454811115610fc65760405162461bcd60e51b815260206004820152601a60248201527f496e73756666696369656e74207661756c742062616c616e63650000000000006044820152606401610430565b6001600160a01b03821661100f5760405162461bcd60e51b815260206004820152601060248201526f496e76616c696420737472617465677960801b6044820152606401610430565b60405163a9059cbb60e01b81526001600160a01b038381166004830152602482018390527f0000000000000000000000000000000000000000000000000000000000000000169063a9059cbb906044016020604051808303816000875af115801561107e573d6000803e3d6000fd5b505050506040513d601f19601f820116820180604052508101906110a291906115e3565b6110ee5760405162461bcd60e51b815260206004820152601860248201527f5374726174656779207472616e73666572206661696c656400000000000000006044820152606401610430565b816001600160a01b03167fb811d939986ff732fa5e25c43b2791456c5d775210b54de1b1c6ddce94f051298260405161112991815260200190565b60405180910390a25050565b61113d611276565b6001600160a01b0381166111855760405162461bcd60e51b815260206004820152600f60248201526e496e76616c6964206164647265737360881b6044820152606401610430565b600780546001600160a01b0319166001600160a01b0392909216919091179055565b6111af611276565b6001600160a01b0381166112145760405162461bcd60e51b815260206004820152602660248201527f4f776e61626c653a206e6577206f776e657220697320746865207a65726f206160448201526564647265737360d01b6064820152608401610430565b610aa581611325565b60026000540361126f5760405162461bcd60e51b815260206004820152601f60248201527f5265656e7472616e637947756172643a207265656e7472616e742063616c6c006044820152606401610430565b6002600055565b6001546001600160a01b0316331461096e5760405162461bcd60e51b815260206004820181905260248201527f4f776e61626c653a2063616c6c6572206973206e6f7420746865206f776e65726044820152606401610430565b6112d8611407565b6001805460ff60a01b191690557f5db9ee0a495bf2e6ff9c91a7834c1ba4fdd244a5e8aa4e537bd38aeae4b073aa335b6040516001600160a01b03909116815260200160405180910390a1565b600180546001600160a01b038381166001600160a01b0319831681179093556040519116919082907f8be0079c531659141344cd1fd0a4f28419497f9722a3daafe3b4186f6b6457e090600090a35050565b61137f6113ba565b6001805460ff60a01b1916600160a01b1790557f62e78cea01bee320cd4e420270b5ea74000d11b0c9f74754ebdbfc544b05a2586113083390565b600154600160a01b900460ff161561096e5760405162461bcd60e51b815260206004820152601060248201526f14185d5cd8589b194e881c185d5cd95960821b6044820152606401610430565b600154600160a01b900460ff1661096e5760405162461bcd60e51b815260206004820152601460248201527314185d5cd8589b194e881b9bdd081c185d5cd95960621b6044820152606401610430565b80356001600160a01b038116811461095957600080fd5b60006020828403121561148057600080fd5b61148982611457565b9392505050565b60008083601f8401126114a257600080fd5b50813567ffffffffffffffff8111156114ba57600080fd5b6020830191508360208260051b85010111156114d557600080fd5b9250929050565b600080600080604085870312156114f257600080fd5b843567ffffffffffffffff8082111561150a57600080fd5b61151688838901611490565b9096509450602087013591508082111561152f57600080fd5b5061153c87828801611490565b95989497509550505050565b60006020828403121561155a57600080fd5b5035919050565b6000806040838503121561157457600080fd5b61157d83611457565b946020939093013593505050565b634e487b7160e01b600052603260045260246000fd5b634e487b7160e01b600052601160045260246000fd5b80820180821115610f1c57610f1c6115a1565b6000600182016115dc576115dc6115a1565b5060010190565b6000602082840312156115f557600080fd5b8151801515811461148957600080fd5b8082028115828204841417610f1c57610f1c6115a1565b60008261163957634e487b7160e01b600052601260045260246000fd5b500490565b81810381811115610f1c57610f1c6115a156fea2646970667358221220e4ccb56723b5e8842eb9dc599ed2235fa3532f8543bd45242770fa019d993d6164736f6c63430008130033",
  "linkReferences": {},
  "deployedLinkReferences": {}
}