{
  "_format": "hh-sol-artifact-1",
  "contractName": "StrategyManager",
  "sourceName": "contracts/StrategyManager.sol",
  "abi": [
    {
      "inputs": [
        {
          "internalType": "address",
          "name": "_vault",
          "type": "address"
        },
        {
          "internalType": "address",
          "name": "_rebalanceExecutor",
          "type": "address"
        }
      ],
      "stateMutability": "nonpayable",
      "type": "constructor"
    },
    {
      "anonymous": false,
      "inputs": [
        {
          "indexed": true,
          "internalType": "address",
          "name": "strategy",
          "type": "address"
        },
        {
          "indexed": false,
          "internalType": "uint256",
          "name": "oldAllocation",
          "type": "uint256"
        },
        {
          "indexed": false,
          "internalType": "uint256",
          "name": "newAllocation",
          "type": "uint256"
        }
      ],
      "name": "AllocationUpdated",
      "type": "event"
    },
    {
      "anonymous": false,
      "inputs": [
        {
          "indexed": true,
          "internalType": "address",
          "name": "previousOwner",
          "type": "address"
        },
        {
          "indexed": true,
          "internalType": "address",
          "name": "newOwner",
          "type": "address"
        }
      ],
      "name": "OwnershipTransferred",
      "type": "event"
    },
    {
      "anonymous": false,
      "inputs": [
        {
          "indexed": false,
          "internalType": "address",
          "name": "account",
          "type": "address"
        }
      ],
      "name": "Paused",
      "type": "event"
    },
    {
      "anonymous": false,
      "inputs": [
        {
          "indexed": true,
          "internalType": "address",
          "name": "strategy",
          "type": "address"
        },
        {
          "indexed": false,
          "internalType": "uint256",
          "name": "newAPY",
          "type": "uint256"
        },
        {
          "indexed": false,
          "internalType": "uint256",
          "name": "performanceScore",
          "type": "uint256"
        }
      ],
      "name": "PerformanceUpdated",
      "type": "event"
    },
    {
      "anonymous": false,
      "inputs": [
        {
          "indexed": false,
          "internalType": "uint256",
          "name": "timestamp",
          "type": "uint256"
        }
      ],
      "name": "RebalanceTriggered",
      "type": "event"
    },
    {
      "anonymous": false,
      "inputs": [
        {
          "indexed": true,
          "internalType": "address",
          "name": "strategy",
          "type": "address"
        }
      ],
      "name": "StrategyActivated",
      "type": "event"
    },
    {
      "anonymous": false,
      "inputs": [
        {
          "indexed": true,
          "internalType": "address",
          "name": "strategy",
          "type": "address"
        }
      ],
      "name": "StrategyDeactivated",
      "type": "event"
    },
    {
      "anonymous": false,
      "inputs": [
        {
          "indexed": true,
          "internalType": "address",
          "name": "strategy",
          "type": "address"
        },
        {
          "indexed": false,
          "internalType": "string",
          "name": "name",
          "type": "string"
        },
        {
          "indexed": false,
          "internalType": "uint256",
          "name": "maxAllocation",
          "type": "uint256"
        }
      ],
      "name": "StrategyRegistered",
      "type": "event"
    },
    {
      "anonymous": false,
      "inputs": [
        {
          "indexed": false,
          "internalType": "address",
          "name": "account",
          "type": "address"
        }
      ],
      "name": "Unpaused",
      "type": "event"
    },
    {
      "inputs": [],
      "name": "BASIS_POINTS",
      "outputs": [
        {
          "internalType": "uint256",
          "name": "",
          "type": "uint256"
        }
      ],
      "stateMutability": "view",
      "type": "function"
    },
    {
      "inputs": [],
      "name": "MAX_STRATEGIES",
      "outputs": [
        {
          "internalType": "uint256",
          "name": "",
          "type": "uint256"
        }
      ],
      "stateMutability": "view",
      "type": "function"
    },
    {
      "inputs": [
        {
          "internalType": "address",
          "name": "strategy",
          "type": "address"
        }
      ],
      "name": "activateStrategy",
      "outputs": [],
      "stateMutability": "nonpayable",
      "type": "function"
    },
    {
      "inputs": [
        {
          "internalType": "uint256",
          "name": "",
          "type": "uint256"
        }
      ],
      "name": "activeStrategies",
      "outputs": [
        {
          "internalType": "address",
          "name": "",
          "type": "address"
        }
      ],
      "stateMutability": "view",
      "type": "function"
    },
    {
      "inputs": [
        {
          "internalType": "address",
          "name": "strategy",
          "type": "address"
        }
      ],
      "name": "deactivateStrategy",
      "outputs": [],
      "stateMutability": "nonpayable",
      "type": "function"
    },
    {
      "inputs": [],
      "name": "emergencyResetAllocations",
      "outputs": [],
      "stateMutability": "nonpayable",
      "type": "function"
    },
    {
      "inputs": [
        {
          "internalType": "address",
          "name": "strategy",
          "type": "address"
        },
        {
          "internalType": "uint256",
          "name": "amount",
          "type": "uint256"
        }
      ],
      "name": "executeStrategy",
      "outputs": [],
      "stateMutability": "nonpayable",
      "type": "function"
    },
    {
      "inputs": [],
      "name": "getActiveStrategies",
      "outputs": [
        {
          "internalType": "address[]",
          "name": "",
          "type": "address[]"
        }
      ],
      "stateMutability": "view",
      "type": "function"
    },
    {
      "inputs": [],
      "name": "getActiveStrategyCount",
      "outputs": [
        {
          "internalType": "uint256",
          "name": "",
          "type": "uint256"
        }
      ],
      "stateMutability": "view",
      "type": "function"
    },
    {
      "inputs": [
        {
          "internalType": "address",
          "name": "strategy",
          "type": "address"
        }
      ],
      "name": "getAllocation",
      "outputs": [
        {
          "internalType": "uint256",
          "name": "",
          "type": "uint256"
        }
      ],
      "stateMutability": "view",
      "type": "function"
    },
    {
      "inputs": [
        {
          "internalType": "address",
          "name": "strategy",
          "type": "address"
        }
      ],
      "name": "getPerformanceMetrics",
      "outputs": [
        {
          "internalType": "uint256",
          "name": "apy",
          "type": "uint256"
        },
        {
          "internalType": "uint256",
          "name": "performanceScore",
          "type": "uint256"
        },
        {
          "internalType": "uint256",
          "name": "lastUpdate",
          "type": "uint256"
        }
      ],
      "stateMutability": "view",
      "type": "function"
    },
    {
      "inputs": [
        {
          "internalType": "address",
          "name": "strategy",
          "type": "address"
        }
      ],
      "name": "getStrategy",
      "outputs": [
        {
          "components": [
            {
              "internalType": "address",
              "name": "strategyAddress",
              "type": "address"
            },
            {
              "internalType": "string",
              "name": "name",
              "type": "string"
            },
            {
              "internalType": "uint256",
              "name": "allocation",
              "type": "uint256"
            },
            {
              "internalType": "uint256",
              "name": "maxAllocation",
              "type": "uint256"
            },
            {
              "internalType": "bool",
              "name": "isActive",
              "type": "bool"
            },
            {
              "internalType": "uint256",
              "name": "totalDeposited",
              "type": "uint256"
            },
            {
              "internalType": "uint256",
              "name": "totalWithdrawn",
              "type": "uint256"
            },
            {
              "internalType": "uint256",
              "name": "lastRebalanceTime",
              "type": "uint256"
            },
            {
              "internalType": "uint256",
              "name": "performanceScore",
              "type": "uint256"
            }
          ],
          "internalType": "struct StrategyManager.Strategy",
          "name": "",
          "type": "tuple"
        }
      ],
      "stateMutability": "view",
      "type": "function"
    },
    {
      "inputs": [
        {
          "internalType": "address",
          "name": "strategy",
          "type": "address"
        }
      ],
      "name": "isPerformingWell",
      "outputs": [
        {
          "internalType": "bool",
          "name": "",
          "type": "bool"
        }
      ],
      "stateMutability": "view",
      "type": "function"
    },
    {
      "inputs": [
        {
          "internalType": "address",
          "name": "",
          "type": "address"
        }
      ],
      "name": "lastAPYUpdate",
      "outputs": [
        {
          "internalType": "uint256",
          "name": "",
          "type": "uint256"
        }
      ],
      "stateMutability": "view",
      "type": "function"
    },
    {
      "inputs": [],
      "name": "owner",
      "outputs": [
        {
          "internalType": "address",
          "name": "",
          "type": "address"
        }
      ],
      "stateMutability": "view",
      "type": "function"
    },
    {
      "inputs": [],
      "name": "pause",
      "outputs": [],
      "stateMutability": "nonpayable",
      "type": "function"
    },
    {
      "inputs": [],
      "name": "paused",
      "outputs": [
        {
          "internalType": "bool",
          "name": "",
          "type": "bool"
        }
      ],
      "stateMutability": "view",
      "type": "function"
    },
    {
      "inputs": [],
      "name": "rebalanceExecutor",
      "outputs": [
        {
          "internalType": "address",
          "name": "",
          "type": "address"
        }
      ],
      "stateMutability": "view",
      "type": "function"
    },
    {
      "inputs": [
        {
          "internalType": "address",
          "name": "strategy",
          "type": "address"
        },
        {
          "internalType": "uint256",
          "name": "amount",
          "type": "uint256"
        }
      ],
      "name": "recordWithdrawal",
      "outputs": [],
      "stateMutability": "nonpayable",
      "type": "function"
    },
    {
      "inputs": [
        {
          "internalType": "address",
          "name": "strategy",
          "type": "address"
        },
        {
          "internalType": "string",
          "name": "name",
          "type": "string"
        },
        {
          "internalType": "uint256",
          "name": "maxAllocation",
          "type": "uint256"
        }
      ],
      "name": "registerStrategy",
      "outputs": [],
      "stateMutability": "nonpayable",
      "type": "function"
    },
    {
      "inputs": [],
      "name": "renounceOwnership",
      "outputs": [],
      "stateMutability": "nonpayable",
      "type": "function"
    },
    {
      "inputs": [
        {
          "internalType": "address",
          "name": "newRebalanceExecutor",
          "type": "address"
        }
      ],
      "name": "setRebalanceExecutor",
      "outputs": [],
      "stateMutability": "nonpayable",
      "type": "function"
    },
    {
      "inputs": [
        {
          "internalType": "address",
          "name": "newVault",
          "type": "address"
        }
      ],
      "name": "setVault",
      "outputs": [],
      "stateMutability": "nonpayable",
      "type": "function"
    },
    {
      "inputs": [
        {
          "internalType": "address",
          "name": "",
          "type": "address"
        }
      ],
      "name": "strategies",
      "outputs": [
        {
          "internalType": "address",
          "name": "strategyAddress",
          "type": "address"
        },
        {
          "internalType": "string",
          "name": "name",
          "type": "string"
        },
        {
          "internalType": "uint256",
          "name": "allocation",
          "type": "uint256"
        },
        {
          "internalType": "uint256",
          "name": "maxAllocation",
          "type": "uint256"
        },
        {
          "internalType": "bool",
          "name": "isActive",
          "type": "bool"
        },
        {
          "internalType": "uint256",
          "name": "totalDeposited",
          "type": "uint256"
        },
        {
          "internalType": "uint256",
          "name": "totalWithdrawn",
          "type": "uint256"
        },
        {
          "internalType": "uint256",
          "name": "lastRebalanceTime",
          "type": "uint256"
        },
        {
          "internalType": "uint256",
          "name": "performanceScore",
          "type": "uint256"
        }
      ],
      "stateMutability": "view",
      "type": "function"
    },
    {
      "inputs": [
        {
          "internalType": "address",
          "name": "",
          "type": "address"
        }
      ],
      "name": "strategyAPY",
      "outputs": [
        {
          "internalType": "uint256",
          "name": "",
          "type": "uint256"
        }
      ],
      "stateMutability": "view",
      "type": "function"
    },
    {
      "inputs": [],
      "name": "totalAllocation",
      "outputs": [
        {
          "internalType": "uint256",
          "name": "",
          "type": "uint256"
        }
      ],
      "stateMutability": "view",
      "type": "function"
    },
    {
      "inputs": [
        {
          "internalType": "address",
          "name": "newOwner",
          "type": "address"
        }
      ],
      "name": "transferOwnership",
      "outputs": [],
      "stateMutability": "nonpayable",
      "type": "function"
    },
    {
      "inputs": [],
      "name": "triggerRebalance",
      "outputs": [],
      "stateMutability": "nonpayable",
      "type": "function"
    },
    {
      "inputs": [],
      "name": "unpause",
      "outputs": [],
      "stateMutability": "nonpayable",
      "type": "function"
    },
    {
      "inputs": [
        {
          "internalType": "address",
          "name": "strategy",
          "type": "address"
        },
        {
          "internalType": "uint256",
          "name": "newAllocation",
          "type": "uint256"
        }
      ],
      "name": "updateAllocation",
      "outputs": [],
      "stateMutability": "nonpayable",
      "type": "function"
    },
    {
      "inputs": [
        {
          "internalType": "address",
          "name": "strategy",
          "type": "address"
        },
        {
          "internalType": "uint256",
          "name": "newAPY",
          "type": "uint256"
        },
        {
          "internalType": "uint256",
          "name": "performanceScore",
          "type": "uint256"
        }
      ],
      "name": "updatePerformance",
      "outputs": [],
      "stateMutability": "nonpayable",
      "type": "function"
    },
    {
      "inputs": [],
      "name": "vault",
      "outputs": [
        {
          "internalType": "address",
          "name": "",
          "type": "address"
        }
      ],
      "stateMutability": "view",
      "type": "function"
    }
  ],
  "bytecode": "0x60806040523480156200001157600080fd5b5060405162001f4038038062001f408339810160408190526200003491620000ef565b6200003f3362000082565b6000805460ff60a01b1916905560018055600580546001600160a01b039384166001600160a01b0319918216179091556006805492909316911617905562000127565b600080546001600160a01b038381166001600160a01b0319831681178455604051919092169283917f8be0079c531659141344cd1fd0a4f28419497f9722a3daafe3b4186f6b6457e09190a35050565b80516001600160a01b0381168114620000ea57600080fd5b919050565b600080604083850312156200010357600080fd5b6200010e83620000d2565b91506200011e60208401620000d2565b90509250929050565b611e0980620001376000396000f3fe608060405234801561001057600080fd5b50600436106101f05760003560e01c80638456cb591161010f578063d77ab72d116100a2578063f2fde38b11610071578063f2fde38b14610426578063f8806a1314610439578063fa17bb7514610459578063fbfa77cf1461046c57600080fd5b8063d77ab72d146103c9578063d80ea5a0146103dc578063e1f1c4a7146103ef578063e844c8c6146103f857600080fd5b8063bcada9b6116100de578063bcada9b61461037d578063c0f10f7014610390578063c18323dc146103a3578063ce6e13ff146103b657600080fd5b80638456cb59146103355780638da5cb5b1461033d57806392460fc514610362578063b20b24291461036a57600080fd5b8063587436e411610187578063715018a611610156578063715018a614610309578063767f06ae1461031157806379203dc4146103195780638091fd551461032257600080fd5b8063587436e4146102b05780635c975abb146102c55780636817031b146102e357806370851703146102f657600080fd5b806339ebf823116101c357806339ebf823146102585780633f4ba83a1461028057806351a693fe146102885780635488a0b6146102a857600080fd5b80630950f905146101f55780630e02292314610228578063224b031b1461023b5780632ddc284014610250575b600080fd5b6102156102033660046118d9565b60086020526000908152604090205481565b6040519081526020015b60405180910390f35b6102156102363660046118d9565b61047f565b61024e6102493660046118fb565b6104e9565b005b61024e6107b4565b61026b6102663660046118d9565b610824565b60405161021f999897969594939291906119ca565b61024e610903565b6102156102963660046118d9565b60076020526000908152604090205481565b61024e610915565b6102b861099f565b60405161021f9190611a28565b600054600160a01b900460ff165b604051901515815260200161021f565b61024e6102f13660046118d9565b610a01565b61024e610304366004611a75565b610a79565b61024e610c07565b610215600a81565b61021560045481565b6102d36103303660046118d9565b610c19565b61024e610c77565b6000546001600160a01b03165b6040516001600160a01b03909116815260200161021f565b600354610215565b61034a610378366004611a9f565b610c87565b61024e61038b366004611a75565b610cb1565b61024e61039e366004611ab8565b610e37565b61024e6103b13660046118d9565b610f7e565b61024e6103c43660046118d9565b611182565b60065461034a906001600160a01b031681565b61024e6103ea3660046118d9565b611202565b61021561271081565b61040b6104063660046118d9565b61133f565b6040805193845260208401929092529082015260600161021f565b61024e6104343660046118d9565b6113b6565b61044c6104473660046118d9565b61142f565b60405161021f9190611aeb565b61024e610467366004611a75565b6115db565b60055461034a906001600160a01b031681565b6001600160a01b0380821660009081526002602052604081205490918391166104c35760405162461bcd60e51b81526004016104ba90611b83565b60405180910390fd5b6001600160a01b0383166000908152600260208190526040909120015491505b50919050565b6104f16116e3565b6001600160a01b0384166105475760405162461bcd60e51b815260206004820152601860248201527f496e76616c69642073747261746567792061646472657373000000000000000060448201526064016104ba565b6127108111156105995760405162461bcd60e51b815260206004820152601760248201527f4d617820616c6c6f636174696f6e20746f6f206869676800000000000000000060448201526064016104ba565b600354600a116105e15760405162461bcd60e51b8152602060048201526013602482015272546f6f206d616e79207374726174656769657360681b60448201526064016104ba565b6001600160a01b0384811660009081526002602052604090205416156106495760405162461bcd60e51b815260206004820152601b60248201527f537472617465677920616c72656164792072656769737465726564000000000060448201526064016104ba565b604051806101200160405280856001600160a01b0316815260200184848080601f016020809104026020016040519081016040528093929190818152602001838380828437600092018290525093855250505060208083018290526040808401869052606084018390526080840183905260a0840183905260c08401839052603260e0909401939093526001600160a01b0388811683526002825292909120835181546001600160a01b031916931692909217825582015160018201906107109082611c53565b50604082810151600283015560608301516003830155608083015160048301805460ff191691151591909117905560a0830151600583015560c0830151600683015560e0830151600783015561010090920151600890910155516001600160a01b038516907fdb855254142617283798e74c3d126bafcb5cb68598e1f3c9f0af48445d5bd93c906107a690869086908690611d13565b60405180910390a250505050565b6107bc6116e3565b60005b60035481101561081c57600060026000600384815481106107e2576107e2611d4c565b60009182526020808320909101546001600160a01b031683528201929092526040019020600201558061081481611d78565b9150506107bf565b506000600455565b600260205260009081526040902080546001820180546001600160a01b03909216929161085090611bd0565b80601f016020809104026020016040519081016040528092919081815260200182805461087c90611bd0565b80156108c95780601f1061089e576101008083540402835291602001916108c9565b820191906000526020600020905b8154815290600101906020018083116108ac57829003601f168201915b505050506002830154600384015460048501546005860154600687015460078801546008909801549697949693955060ff90921693909289565b61090b6116e3565b61091361173d565b565b6006546001600160a01b031633146109695760405162461bcd60e51b815260206004820152601760248201527627b7363c903932b130b630b731b29032bc32b1baba37b960491b60448201526064016104ba565b6040514281527fde38108c6f3ab6b01fcd3eaa640727d1a909402bf3f04ef22a37c6451acc5aff906020015b60405180910390a1565b606060038054806020026020016040519081016040528092919081815260200182805480156109f757602002820191906000526020600020905b81546001600160a01b031681526001909101906020018083116109d9575b5050505050905090565b610a096116e3565b6001600160a01b038116610a575760405162461bcd60e51b8152602060048201526015602482015274496e76616c6964207661756c74206164647265737360581b60448201526064016104ba565b600580546001600160a01b0319166001600160a01b0392909216919091179055565b610a816116e3565b6001600160a01b03808316600090815260026020526040902054839116610aba5760405162461bcd60e51b81526004016104ba90611b83565b6001600160a01b038316600090815260026020526040902060030154821115610b255760405162461bcd60e51b815260206004820152601a60248201527f416c6c6f636174696f6e2065786365656473206d6178696d756d00000000000060448201526064016104ba565b6001600160a01b038316600090815260026020819052604090912001546004548390610b52908390611d91565b610b5c9190611daa565b60048190556127101015610bb25760405162461bcd60e51b815260206004820152601d60248201527f546f74616c20616c6c6f636174696f6e2065786365656473203130302500000060448201526064016104ba565b6001600160a01b03841660008181526002602081815260409283902090910186905581518481529081018690527f4ef7a78bd86b4e03b8eeec706e7856601c91672893c3ccff13ac39a51829926491016107a6565b610c0f6116e3565b610913600061178d565b6001600160a01b038082166000908152600260205260408120549091839116610c545760405162461bcd60e51b81526004016104ba90611b83565b50506001600160a01b031660009081526002602052604090206008015460461090565b610c7f6116e3565b6109136117dd565b60038181548110610c9757600080fd5b6000918252602090912001546001600160a01b0316905081565b6005546001600160a01b03163314610d015760405162461bcd60e51b815260206004820152601360248201527213db9b1e481d985d5b1d0818d85b8818d85b1b606a1b60448201526064016104ba565b6001600160a01b03808316600090815260026020526040902054839116610d3a5760405162461bcd60e51b81526004016104ba90611b83565b6001600160a01b03831660009081526002602052604090206004015460ff16610d9b5760405162461bcd60e51b81526020600482015260136024820152725374726174656779206e6f742061637469766560681b60448201526064016104ba565b60008211610de55760405162461bcd60e51b8152602060048201526017602482015276416d6f756e74206d75737420626520706f73697469766560481b60448201526064016104ba565b6001600160a01b03831660009081526002602052604081206005018054849290610e10908490611daa565b909155505050506001600160a01b0316600090815260026020526040902042600790910155565b6006546001600160a01b03163314610e8b5760405162461bcd60e51b815260206004820152601760248201527627b7363c903932b130b630b731b29032bc32b1baba37b960491b60448201526064016104ba565b6001600160a01b03808416600090815260026020526040902054849116610ec45760405162461bcd60e51b81526004016104ba90611b83565b6064821115610f155760405162461bcd60e51b815260206004820152601a60248201527f506572666f726d616e63652073636f726520746f6f206869676800000000000060448201526064016104ba565b6001600160a01b038416600081815260076020908152604080832087905560028252808320600890810187905582529182902042905581518681529081018590527f3d95ef70101318503366efd9e6b901f992f45bf1e94884bb0f4f311fbba3d42591016107a6565b610f866116e3565b6001600160a01b03808216600090815260026020526040902054829116610fbf5760405162461bcd60e51b81526004016104ba90611b83565b6001600160a01b03821660009081526002602052604090206004015460ff166110205760405162461bcd60e51b81526020600482015260136024820152725374726174656779206e6f742061637469766560681b60448201526064016104ba565b6001600160a01b0382166000908152600260205260408120600401805460ff191690555b60035481101561114957826001600160a01b03166003828154811061106b5761106b611d4c565b6000918252602090912001546001600160a01b031603611137576003805461109590600190611d91565b815481106110a5576110a5611d4c565b600091825260209091200154600380546001600160a01b0390921691839081106110d1576110d1611d4c565b9060005260206000200160006101000a8154816001600160a01b0302191690836001600160a01b03160217905550600380548061111057611110611dbd565b600082815260209020810160001990810180546001600160a01b0319169055019055611149565b8061114181611d78565b915050611044565b506040516001600160a01b038316907f274ec28d31430170ad5dd350f8e7505ffab078c309300878c710383ae4cbed4990600090a25050565b61118a6116e3565b6001600160a01b0381166111e05760405162461bcd60e51b815260206004820152601860248201527f496e76616c6964206578656375746f722061646472657373000000000000000060448201526064016104ba565b600680546001600160a01b0319166001600160a01b0392909216919091179055565b61120a6116e3565b6001600160a01b038082166000908152600260205260409020548291166112435760405162461bcd60e51b81526004016104ba90611b83565b6001600160a01b03821660009081526002602052604090206004015460ff16156112af5760405162461bcd60e51b815260206004820152601760248201527f537472617465677920616c72656164792061637469766500000000000000000060448201526064016104ba565b6001600160a01b038216600081815260026020526040808220600401805460ff1916600190811790915560038054918201815583527fc2575a0e9e593c00f959f8c92f12db2869c3395a3b0502d05e2516446f71f85b0180546001600160a01b03191684179055517f652f053fc39779b70b29678135ade972fcb79966fc68fcb77c996b1aa4fd9afb9190a25050565b6001600160a01b0380821660009081526002602052604081205490918291829185911661137e5760405162461bcd60e51b81526004016104ba90611b83565b505050506001600160a01b03166000908152600760209081526040808320546002835281842060089081015493529220549192909190565b6113be6116e3565b6001600160a01b0381166114235760405162461bcd60e51b815260206004820152602660248201527f4f776e61626c653a206e6577206f776e657220697320746865207a65726f206160448201526564647265737360d01b60648201526084016104ba565b61142c8161178d565b50565b61148960405180610120016040528060006001600160a01b03168152602001606081526020016000815260200160008152602001600015158152602001600081526020016000815260200160008152602001600081525090565b6001600160a01b038083166000908152600260205260409020548391166114c25760405162461bcd60e51b81526004016104ba90611b83565b6001600160a01b0380841660009081526002602090815260409182902082516101208101909352805490931682526001830180549293929184019161150690611bd0565b80601f016020809104026020016040519081016040528092919081815260200182805461153290611bd0565b801561157f5780601f106115545761010080835404028352916020019161157f565b820191906000526020600020905b81548152906001019060200180831161156257829003601f168201915b50505091835250506002820154602082015260038201546040820152600482015460ff161515606082015260058201546080820152600682015460a0820152600782015460c082015260089091015460e0909101529392505050565b6005546001600160a01b0316331461162b5760405162461bcd60e51b815260206004820152601360248201527213db9b1e481d985d5b1d0818d85b8818d85b1b606a1b60448201526064016104ba565b6001600160a01b038083166000908152600260205260409020548391166116645760405162461bcd60e51b81526004016104ba90611b83565b600082116116ae5760405162461bcd60e51b8152602060048201526017602482015276416d6f756e74206d75737420626520706f73697469766560481b60448201526064016104ba565b6001600160a01b038316600090815260026020526040812060060180548492906116d9908490611daa565b9091555050505050565b6000546001600160a01b031633146109135760405162461bcd60e51b815260206004820181905260248201527f4f776e61626c653a2063616c6c6572206973206e6f7420746865206f776e657260448201526064016104ba565b611745611820565b6000805460ff60a01b191690557f5db9ee0a495bf2e6ff9c91a7834c1ba4fdd244a5e8aa4e537bd38aeae4b073aa335b6040516001600160a01b039091168152602001610995565b600080546001600160a01b038381166001600160a01b0319831681178455604051919092169283917f8be0079c531659141344cd1fd0a4f28419497f9722a3daafe3b4186f6b6457e09190a35050565b6117e5611870565b6000805460ff60a01b1916600160a01b1790557f62e78cea01bee320cd4e420270b5ea74000d11b0c9f74754ebdbfc544b05a2586117753390565b600054600160a01b900460ff166109135760405162461bcd60e51b815260206004820152601460248201527314185d5cd8589b194e881b9bdd081c185d5cd95960621b60448201526064016104ba565b600054600160a01b900460ff16156109135760405162461bcd60e51b815260206004820152601060248201526f14185d5cd8589b194e881c185d5cd95960821b60448201526064016104ba565b80356001600160a01b03811681146118d457600080fd5b919050565b6000602082840312156118eb57600080fd5b6118f4826118bd565b9392505050565b6000806000806060858703121561191157600080fd5b61191a856118bd565b9350602085013567ffffffffffffffff8082111561193757600080fd5b818701915087601f83011261194b57600080fd5b81358181111561195a57600080fd5b88602082850101111561196c57600080fd5b95986020929092019750949560400135945092505050565b6000815180845260005b818110156119aa5760208185018101518683018201520161198e565b506000602082860101526020601f19601f83011685010191505092915050565b6001600160a01b038a168152610120602082018190526000906119ef8382018c611984565b604084019a909a5250506060810196909652931515608086015260a085019290925260c084015260e08301526101009091015292915050565b6020808252825182820181905260009190848201906040850190845b81811015611a695783516001600160a01b031683529284019291840191600101611a44565b50909695505050505050565b60008060408385031215611a8857600080fd5b611a91836118bd565b946020939093013593505050565b600060208284031215611ab157600080fd5b5035919050565b600080600060608486031215611acd57600080fd5b611ad6846118bd565b95602085013595506040909401359392505050565b60208152611b056020820183516001600160a01b03169052565b60006020830151610120806040850152611b23610140850183611984565b915060408501516060850152606085015160808501526080850151611b4c60a086018215159052565b5060a085015160c085015260c085015160e085015260e0850151610100818187015280870151838701525050508091505092915050565b60208082526017908201527f5374726174656779206e6f742072656769737465726564000000000000000000604082015260600190565b634e487b7160e01b600052604160045260246000fd5b600181811c90821680611be457607f821691505b6020821081036104e357634e487b7160e01b600052602260045260246000fd5b601f821115611c4e57600081815260208120601f850160051c81016020861015611c2b5750805b601f850160051c820191505b81811015611c4a57828155600101611c37565b5050505b505050565b815167ffffffffffffffff811115611c6d57611c6d611bba565b611c8181611c7b8454611bd0565b84611c04565b602080601f831160018114611cb65760008415611c9e5750858301515b600019600386901b1c1916600185901b178555611c4a565b600085815260208120601f198616915b82811015611ce557888601518255948401946001909101908401611cc6565b5085821015611d035787850151600019600388901b60f8161c191681555b5050505050600190811b01905550565b604081528260408201528284606083013760006060848301015260006060601f19601f8601168301019050826020830152949350505050565b634e487b7160e01b600052603260045260246000fd5b634e487b7160e01b600052601160045260246000fd5b600060018201611d8a57611d8a611d62565b5060010190565b81810381811115611da457611da4611d62565b92915050565b80820180821115611da457611da4611d62565b634e487b7160e01b600052603160045260246000fdfea26469706673582212209c2bc513c908d5fc57932a61d863de79ed3f35738a917483ffac953e4e586a6a64736f6c63430008130033",
  "linkReferences": {},
  "deployedLinkReferences": {}
}