{
  "_format": "hh-sol-artifact-1",
  "contractName": "RebalanceExecutor",
  "sourceName": "contracts/RebalanceExecutor.sol",
  "abi": [
    {
      "inputs": [
        {
          "internalType": "address",
          "name": "_vault",
          "type": "address"
        },
        {
          "internalType": "address",
          "name": "_strategyManager",
          "type": "address"
        },
        {
          "internalType": "uint256",
          "name": "_rebalanceThreshold",
          "type": "uint256"
        },
        {
          "internalType": "uint256",
          "name": "_maxRebalanceAmount",
          "type": "uint256"
        },
        {
          "internalType": "uint256",
          "name": "_cooldownPeriod",
          "type": "uint256"
        }
      ],
      "stateMutability": "nonpayable",
      "type": "constructor"
    },
    {
      "anonymous": false,
      "inputs": [
        {
          "indexed": false,
          "internalType": "uint256",
          "name": "rebalanceThreshold",
          "type": "uint256"
        },
        {
          "indexed": false,
          "internalType": "uint256",
          "name": "maxRebalanceAmount",
          "type": "uint256"
        },
        {
          "indexed": false,
          "internalType": "uint256",
          "name": "cooldownPeriod",
          "type": "uint256"
        },
        {
          "indexed": false,
          "internalType": "bool",
          "name": "autoRebalanceEnabled",
          "type": "bool"
        }
      ],
      "name": "ConfigUpdated",
      "type": "event"
    },
    {
      "anonymous": false,
      "inputs": [
        {
          "indexed": true,
          "internalType": "address",
          "name": "strategy",
          "type": "address"
        },
        {
          "indexed": false,
          "internalType": "uint256",
          "name": "amount",
          "type": "uint256"
        }
      ],
      "name": "EmergencyRebalance",
      "type": "event"
    },
    {
      "anonymous": false,
      "inputs": [
        {
          "indexed": true,
          "internalType": "address",
          "name": "previousOwner",
          "type": "address"
        },
        {
          "indexed": true,
          "internalType": "address",
          "name": "newOwner",
          "type": "address"
        }
      ],
      "name": "OwnershipTransferred",
      "type": "event"
    },
    {
      "anonymous": false,
      "inputs": [
        {
          "indexed": false,
          "internalType": "address",
          "name": "account",
          "type": "address"
        }
      ],
      "name": "Paused",
      "type": "event"
    },
    {
      "anonymous": false,
      "inputs": [
        {
          "indexed": true,
          "internalType": "uint256",
          "name": "rebalanceId",
          "type": "uint256"
        },
        {
          "indexed": false,
          "internalType": "uint256",
          "name": "timestamp",
          "type": "uint256"
        },
        {
          "indexed": false,
          "internalType": "uint256",
          "name": "totalAmount",
          "type": "uint256"
        },
        {
          "indexed": false,
          "internalType": "address[]",
          "name": "strategies",
          "type": "address[]"
        },
        {
          "indexed": false,
          "internalType": "uint256[]",
          "name": "amounts",
          "type": "uint256[]"
        },
        {
          "indexed": false,
          "internalType": "string",
          "name": "reason",
          "type": "string"
        }
      ],
      "name": "RebalanceExecuted",
      "type": "event"
    },
    {
      "anonymous": false,
      "inputs": [
        {
          "indexed": false,
          "internalType": "address",
          "name": "account",
          "type": "address"
        }
      ],
      "name": "Unpaused",
      "type": "event"
    },
    {
      "inputs": [],
      "name": "MAX_REBALANCE_PERCENTAGE",
      "outputs": [
        {
          "internalType": "uint256",
          "name": "",
          "type": "uint256"
        }
      ],
      "stateMutability": "view",
      "type": "function"
    },
    {
      "inputs": [],
      "name": "PERFORMANCE_THRESHOLD_HIGH",
      "outputs": [
        {
          "internalType": "uint256",
          "name": "",
          "type": "uint256"
        }
      ],
      "stateMutability": "view",
      "type": "function"
    },
    {
      "inputs": [],
      "name": "PERFORMANCE_THRESHOLD_LOW",
      "outputs": [
        {
          "internalType": "uint256",
          "name": "",
          "type": "uint256"
        }
      ],
      "stateMutability": "view",
      "type": "function"
    },
    {
      "inputs": [
        {
          "internalType": "address[]",
          "name": "strategies",
          "type": "address[]"
        }
      ],
      "name": "analyzePerformance",
      "outputs": [
        {
          "internalType": "bool",
          "name": "shouldRebalance",
          "type": "bool"
        },
        {
          "internalType": "string",
          "name": "reason",
          "type": "string"
        }
      ],
      "stateMutability": "view",
      "type": "function"
    },
    {
      "inputs": [
        {
          "internalType": "address[]",
          "name": "strategies",
          "type": "address[]"
        },
        {
          "internalType": "uint256[]",
          "name": "currentAllocations",
          "type": "uint256[]"
        }
      ],
      "name": "calculateOptimalAllocation",
      "outputs": [
        {
          "internalType": "uint256[]",
          "name": "newAllocations",
          "type": "uint256[]"
        }
      ],
      "stateMutability": "pure",
      "type": "function"
    },
    {
      "inputs": [],
      "name": "canExecuteRebalance",
      "outputs": [
        {
          "internalType": "bool",
          "name": "canRebalance",
          "type": "bool"
        },
        {
          "internalType": "uint256",
          "name": "timeRemaining",
          "type": "uint256"
        }
      ],
      "stateMutability": "view",
      "type": "function"
    },
    {
      "inputs": [],
      "name": "config",
      "outputs": [
        {
          "internalType": "uint256",
          "name": "rebalanceThreshold",
          "type": "uint256"
        },
        {
          "internalType": "uint256",
          "name": "maxRebalanceAmount",
          "type": "uint256"
        },
        {
          "internalType": "uint256",
          "name": "cooldownPeriod",
          "type": "uint256"
        },
        {
          "internalType": "bool",
          "name": "autoRebalanceEnabled",
          "type": "bool"
        }
      ],
      "stateMutability": "view",
      "type": "function"
    },
    {
      "inputs": [
        {
          "internalType": "address",
          "name": "strategy",
          "type": "address"
        },
        {
          "internalType": "uint256",
          "name": "amount",
          "type": "uint256"
        }
      ],
      "name": "emergencyRebalance",
      "outputs": [],
      "stateMutability": "nonpayable",
      "type": "function"
    },
    {
      "inputs": [
        {
          "internalType": "address[]",
          "name": "strategies",
          "type": "address[]"
        },
        {
          "internalType": "uint256[]",
          "name": "amounts",
          "type": "uint256[]"
        },
        {
          "internalType": "string",
          "name": "reason",
          "type": "string"
        }
      ],
      "name": "executeRebalance",
      "outputs": [],
      "stateMutability": "nonpayable",
      "type": "function"
    },
    {
      "inputs": [],
      "name": "getConfig",
      "outputs": [
        {
          "components": [
            {
              "internalType": "uint256",
              "name": "rebalanceThreshold",
              "type": "uint256"
            },
            {
              "internalType": "uint256",
              "name": "maxRebalanceAmount",
              "type": "uint256"
            },
            {
              "internalType": "uint256",
              "name": "cooldownPeriod",
              "type": "uint256"
            },
            {
              "internalType": "bool",
              "name": "autoRebalanceEnabled",
              "type": "bool"
            }
          ],
          "internalType": "struct RebalanceExecutor.RebalanceConfig",
          "name": "",
          "type": "tuple"
        }
      ],
      "stateMutability": "view",
      "type": "function"
    },
    {
      "inputs": [],
      "name": "getRebalanceCount",
      "outputs": [
        {
          "internalType": "uint256",
          "name": "",
          "type": "uint256"
        }
      ],
      "stateMutability": "view",
      "type": "function"
    },
    {
      "inputs": [
        {
          "internalType": "uint256",
          "name": "rebalanceId",
          "type": "uint256"
        }
      ],
      "name": "getRebalanceHistory",
      "outputs": [
        {
          "components": [
            {
              "internalType": "uint256",
              "name": "timestamp",
              "type": "uint256"
            },
            {
              "internalType": "uint256",
              "name": "totalAmount",
              "type": "uint256"
            },
            {
              "internalType": "address[]",
              "name": "strategies",
              "type": "address[]"
            },
            {
              "internalType": "uint256[]",
              "name": "amounts",
              "type": "uint256[]"
            },
            {
              "internalType": "string",
              "name": "reason",
              "type": "string"
            }
          ],
          "internalType": "struct RebalanceExecutor.RebalanceEvent",
          "name": "",
          "type": "tuple"
        }
      ],
      "stateMutability": "view",
      "type": "function"
    },
    {
      "inputs": [],
      "name": "lastRebalanceTime",
      "outputs": [
        {
          "internalType": "uint256",
          "name": "",
          "type": "uint256"
        }
      ],
      "stateMutability": "view",
      "type": "function"
    },
    {
      "inputs": [],
      "name": "owner",
      "outputs": [
        {
          "internalType": "address",
          "name": "",
          "type": "address"
        }
      ],
      "stateMutability": "view",
      "type": "function"
    },
    {
      "inputs": [],
      "name": "pause",
      "outputs": [],
      "stateMutability": "nonpayable",
      "type": "function"
    },
    {
      "inputs": [],
      "name": "paused",
      "outputs": [
        {
          "internalType": "bool",
          "name": "",
          "type": "bool"
        }
      ],
      "stateMutability": "view",
      "type": "function"
    },
    {
      "inputs": [],
      "name": "rebalanceCount",
      "outputs": [
        {
          "internalType": "uint256",
          "name": "",
          "type": "uint256"
        }
      ],
      "stateMutability": "view",
      "type": "function"
    },
    {
      "inputs": [
        {
          "internalType": "uint256",
          "name": "",
          "type": "uint256"
        }
      ],
      "name": "rebalanceHistory",
      "outputs": [
        {
          "internalType": "uint256",
          "name": "timestamp",
          "type": "uint256"
        },
        {
          "internalType": "uint256",
          "name": "totalAmount",
          "type": "uint256"
        },
        {
          "internalType": "string",
          "name": "reason",
          "type": "string"
        }
      ],
      "stateMutability": "view",
      "type": "function"
    },
    {
      "inputs": [],
      "name": "renounceOwnership",
      "outputs": [],
      "stateMutability": "nonpayable",
      "type": "function"
    },
    {
      "inputs": [],
      "name": "resetHistory",
      "outputs": [],
      "stateMutability": "nonpayable",
      "type": "function"
    },
    {
      "inputs": [
        {
          "internalType": "address",
          "name": "newStrategyManager",
          "type": "address"
        }
      ],
      "name": "setStrategyManager",
      "outputs": [],
      "stateMutability": "nonpayable",
      "type": "function"
    },
    {
      "inputs": [
        {
          "internalType": "address",
          "name": "newVault",
          "type": "address"
        }
      ],
      "name": "setVault",
      "outputs": [],
      "stateMutability": "nonpayable",
      "type": "function"
    },
    {
      "inputs": [],
      "name": "strategyManager",
      "outputs": [
        {
          "internalType": "address",
          "name": "",
          "type": "address"
        }
      ],
      "stateMutability": "view",
      "type": "function"
    },
    {
      "inputs": [
        {
          "internalType": "address",
          "name": "newOwner",
          "type": "address"
        }
      ],
      "name": "transferOwnership",
      "outputs": [],
      "stateMutability": "nonpayable",
      "type": "function"
    },
    {
      "inputs": [],
      "name": "triggerAutoRebalance",
      "outputs": [],
      "stateMutability": "nonpayable",
      "type": "function"
    },
    {
      "inputs": [],
      "name": "unpause",
      "outputs": [],
      "stateMutability": "nonpayable",
      "type": "function"
    },
    {
      "inputs": [
        {
          "internalType": "uint256",
          "name": "_rebalanceThreshold",
          "type": "uint256"
        },
        {
          "internalType": "uint256",
          "name": "_maxRebalanceAmount",
          "type": "uint256"
        },
        {
          "internalType": "uint256",
          "name": "_cooldownPeriod",
          "type": "uint256"
        },
        {
          "internalType": "bool",
          "name": "_autoRebalanceEnabled",
          "type": "bool"
        }
      ],
      "name": "updateConfig",
      "outputs": [],
      "stateMutability": "nonpayable",
      "type": "function"
    },
    {
      "inputs": [],
      "name": "vault",
      "outputs": [
        {
          "internalType": "address",
          "name": "",
          "type": "address"
        }
      ],
      "stateMutability": "view",
      "type": "function"
    }
  ],
  "bytecode": "0x60806040523480156200001157600080fd5b5060405162001e2538038062001e25833981016040819052620000349162000130565b6200003f33620000c3565b6000805460ff60a01b191690556001808055600680546001600160a01b039788166001600160a01b031991821617909155600780549690971695169490941790945560408051608081018252838152602081018390529081018590526060018390526002919091556003556004919091556005805460ff1916909117905562000183565b600080546001600160a01b038381166001600160a01b0319831681178455604051919092169283917f8be0079c531659141344cd1fd0a4f28419497f9722a3daafe3b4186f6b6457e09190a35050565b80516001600160a01b03811681146200012b57600080fd5b919050565b600080600080600060a086880312156200014957600080fd5b620001548662000113565b9450620001646020870162000113565b6040870151606088015160809098015196999198509695945092505050565b611c9280620001936000396000f3fe608060405234801561001057600080fd5b50600436106101c45760003560e01c806379502c55116100f95780639d7e39d811610097578063d9ca21d511610071578063d9ca21d5146103fe578063e733fc7f14610407578063f2fde38b1461040f578063fbfa77cf1461042257600080fd5b80639d7e39d81461038e578063a8bdf3e7146103a1578063c3f909d4146103c157600080fd5b80638456cb59116100d35780638456cb591461034d57806388875f9b146103555780638da5cb5b1461037457806396bad8441461038557600080fd5b806379502c5514610302578063799afbe01461033d5780637b9ffdd91461034557600080fd5b8063474e4134116101665780635c975abb116101405780635c975abb146102b75780636817031b146102d45780636c4f2c93146102e7578063715018a6146102fa57600080fd5b8063474e41341461027a5780634c39ad48146102825780635c966646146102a457600080fd5b806338ef6a88116101a257806338ef6a881461021057806339b70e38146102305780633d5b69731461025b5780633f4ba83a1461027257600080fd5b806316a1fa91146101c95780632025c27d146101de578063358effcb146101e6575b600080fd5b6101dc6101d7366004611511565b610435565b005b6101dc6107dc565b6101f96101f43660046115d7565b610933565b60405161020792919061165f565b60405180910390f35b61022361021e366004611682565b6109a3565b6040516102079190611729565b600754610243906001600160a01b031681565b6040516001600160a01b039091168152602001610207565b6102646107d081565b604051908152602001610207565b6101dc610a89565b600954610264565b610295610290366004611743565b610a9b565b6040516102079392919061175c565b6101dc6102b23660046117a0565b610b46565b600054600160a01b900460ff166040519015158152602001610207565b6101dc6102e23660046117a0565b610bc6565b6101dc6102f53660046117bb565b610c3e565b6101dc610daf565b60025460035460045460055461031b9392919060ff1684565b6040805194855260208501939093529183015215156060820152608001610207565b6101dc610dc1565b610264605081565b6101dc610dd5565b61035d610de5565b604080519215158352602083019190915201610207565b6000546001600160a01b0316610243565b61026460095481565b6101dc61039c366004611801565b610e2f565b6103b46103af366004611743565b610f17565b6040516102079190611864565b6103c9611107565b604051610207919081518152602080830151908201526040808301519082015260609182015115159181019190915260800190565b610264600a5481565b610264601e81565b6101dc61041d3660046117a0565b611166565b600654610243906001600160a01b031681565b6006546001600160a01b0316331461048a5760405162461bcd60e51b815260206004820152601360248201527213db9b1e481d985d5b1d0818d85b8818d85b1b606a1b60448201526064015b60405180910390fd5b6104926111df565b600454600a546104a29190611917565b4210156104f15760405162461bcd60e51b815260206004820152601a60248201527f436f6f6c646f776e20706572696f64206e6f74207061737365640000000000006044820152606401610481565b8483146105395760405162461bcd60e51b8152602060048201526016602482015275082e4e4c2f2e640d8cadccee8d040dad2e6dac2e8c6d60531b6044820152606401610481565b8461057f5760405162461bcd60e51b8152602060048201526016602482015275139bc81cdd1c985d1959da595cc81c1c9bdd9a59195960521b6044820152606401610481565b6000805b8481101561062e5785858281811061059d5761059d611930565b90506020020135826105af9190611917565b6003549092508686838181106105c7576105c7611930565b90506020020135111561061c5760405162461bcd60e51b815260206004820152601c60248201527f416d6f756e742065786365656473206d617820726562616c616e6365000000006044820152606401610481565b8061062681611946565b915050610583565b506040518060a001604052804281526020018281526020018888808060200260200160405190810160405280939291908181526020018383602002808284376000920191909152505050908252506040805160208881028281018201909352888252928301929091899189918291850190849080828437600092019190915250505090825250604080516020601f8701819004810282018101909252858152918101919086908690819084018382808284376000920182905250939094525050600954815260086020908152604091829020845181558482015160018201559184015180519293506107299260028501929190910190611417565b506060820151805161074591600384019160209091019061147c565b506080820151600482019061075a90826119fa565b5050600980549150600061076d83611946565b909155505042600a5560095461078590600190611aba565b7f135fe548417b2e204b183b90da69d0e13c5c3c8c3e34add024486800100af29142838a8a8a8a8a8a6040516107c2989796959493929190611af6565b60405180910390a2506107d460018055565b505050505050565b6007546001600160a01b0316331461082e5760405162461bcd60e51b815260206004820152601560248201527427b7363c9039ba3930ba32b3bc9036b0b730b3b2b960591b6044820152606401610481565b60055460ff166108805760405162461bcd60e51b815260206004820152601960248201527f4175746f20726562616c616e63696e672064697361626c6564000000000000006044820152606401610481565b600454600a546108909190611917565b4210156108df5760405162461bcd60e51b815260206004820152601a60248201527f436f6f6c646f776e20706572696f64206e6f74207061737365640000000000006044820152606401610481565b60095460408051600080825260208201818152828401938490527f135fe548417b2e204b183b90da69d0e13c5c3c8c3e34add024486800100af29193610929934293929091611b9d565b60405180910390a2565b6000606082820361097c57505060408051808201909152601881527f4e6f207374726174656769657320746f20616e616c797a650000000000000000602082015260009061099c565b6001604051806060016040528060298152602001611c3460299139915091505b9250929050565b60608382146109ed5760405162461bcd60e51b8152602060048201526016602482015275082e4e4c2f2e640d8cadccee8d040dad2e6dac2e8c6d60531b6044820152606401610481565b8367ffffffffffffffff811115610a0657610a0661195f565b604051908082528060200260200182016040528015610a2f578160200160208202803683370190505b5090506127106000610a418683611c11565b905060005b86811015610a7e5781848281518110610a6157610a61611930565b602090810291909101015280610a7681611946565b915050610a46565b505050949350505050565b610a91611238565b610a99611292565b565b60086020526000908152604090208054600182015460048301805492939192610ac390611975565b80601f0160208091040260200160405190810160405280929190818152602001828054610aef90611975565b8015610b3c5780601f10610b1157610100808354040283529160200191610b3c565b820191906000526020600020905b815481529060010190602001808311610b1f57829003601f168201915b5050505050905083565b610b4e611238565b6001600160a01b038116610ba45760405162461bcd60e51b815260206004820181905260248201527f496e76616c6964207374726174656779206d616e6167657220616464726573736044820152606401610481565b600780546001600160a01b0319166001600160a01b0392909216919091179055565b610bce611238565b6001600160a01b038116610c1c5760405162461bcd60e51b8152602060048201526015602482015274496e76616c6964207661756c74206164647265737360581b6044820152606401610481565b600680546001600160a01b0319166001600160a01b0392909216919091179055565b610c46611238565b611388841115610c8d5760405162461bcd60e51b81526020600482015260126024820152710a8d0e4cae6d0ded8c840e8dede40d0d2ced60731b6044820152606401610481565b60008311610cdd5760405162461bcd60e51b815260206004820152601b60248201527f4d617820616d6f756e74206d75737420626520706f73697469766500000000006044820152606401610481565b610e10821015610d245760405162461bcd60e51b815260206004820152601260248201527110dbdbdb191bdddb881d1bdbc81cda1bdc9d60721b6044820152606401610481565b6040805160808082018352868252602080830187905282840186905284151560609384018190526002899055600388905560048790556005805460ff1916821790558451898152918201889052938101869052918201929092527f2af319d1a311f8b2161a9eba18693d6b1ffe0524fda0d6e72b5c2eef1da6657c910160405180910390a150505050565b610db7611238565b610a9960006112e7565b610dc9611238565b60006009819055600a55565b610ddd611238565b610a99611337565b6000806002800154600a54610dfa9190611917565b4210610e0a575060019160009150565b600454600a544291610e1b91611917565b610e259190611aba565b9050600091509091565b610e37611238565b6001600160a01b038216610e805760405162461bcd60e51b815260206004820152601060248201526f496e76616c696420737472617465677960801b6044820152606401610481565b60008111610ed05760405162461bcd60e51b815260206004820152601760248201527f416d6f756e74206d75737420626520706f7369746976650000000000000000006044820152606401610481565b816001600160a01b03167f1bf907adc089b3e6c2554294cdc2c2ceef56d0e6b324097270638e4720d89f6082604051610f0b91815260200190565b60405180910390a25050565b610f496040518060a0016040528060008152602001600081526020016060815260200160608152602001606081525090565b6009548210610f915760405162461bcd60e51b8152602060048201526014602482015273125b9d985b1a59081c9958985b185b98d948125160621b6044820152606401610481565b600082815260086020908152604091829020825160a081018452815481526001820154818401526002820180548551818602810186018752818152929593949386019383018282801561100d57602002820191906000526020600020905b81546001600160a01b03168152600190910190602001808311610fef575b505050505081526020016003820180548060200260200160405190810160405280929190818152602001828054801561106557602002820191906000526020600020905b815481526020019060010190808311611051575b5050505050815260200160048201805461107e90611975565b80601f01602080910402602001604051908101604052809291908181526020018280546110aa90611975565b80156110f75780601f106110cc576101008083540402835291602001916110f7565b820191906000526020600020905b8154815290600101906020018083116110da57829003601f168201915b5050505050815250509050919050565b61113460405180608001604052806000815260200160008152602001600081526020016000151581525090565b5060408051608081018252600254815260035460208201526004549181019190915260055460ff161515606082015290565b61116e611238565b6001600160a01b0381166111d35760405162461bcd60e51b815260206004820152602660248201527f4f776e61626c653a206e6577206f776e657220697320746865207a65726f206160448201526564647265737360d01b6064820152608401610481565b6111dc816112e7565b50565b6002600154036112315760405162461bcd60e51b815260206004820152601f60248201527f5265656e7472616e637947756172643a207265656e7472616e742063616c6c006044820152606401610481565b6002600155565b6000546001600160a01b03163314610a995760405162461bcd60e51b815260206004820181905260248201527f4f776e61626c653a2063616c6c6572206973206e6f7420746865206f776e65726044820152606401610481565b61129a61137a565b6000805460ff60a01b191690557f5db9ee0a495bf2e6ff9c91a7834c1ba4fdd244a5e8aa4e537bd38aeae4b073aa335b6040516001600160a01b03909116815260200160405180910390a1565b600080546001600160a01b038381166001600160a01b0319831681178455604051919092169283917f8be0079c531659141344cd1fd0a4f28419497f9722a3daafe3b4186f6b6457e09190a35050565b61133f6113ca565b6000805460ff60a01b1916600160a01b1790557f62e78cea01bee320cd4e420270b5ea74000d11b0c9f74754ebdbfc544b05a2586112ca3390565b600054600160a01b900460ff16610a995760405162461bcd60e51b815260206004820152601460248201527314185d5cd8589b194e881b9bdd081c185d5cd95960621b6044820152606401610481565b600054600160a01b900460ff1615610a995760405162461bcd60e51b815260206004820152601060248201526f14185d5cd8589b194e881c185d5cd95960821b6044820152606401610481565b82805482825590600052602060002090810192821561146c579160200282015b8281111561146c57825182546001600160a01b0319166001600160a01b03909116178255602090920191600190910190611437565b506114789291506114b7565b5090565b82805482825590600052602060002090810192821561146c579160200282015b8281111561146c57825182559160200191906001019061149c565b5b8082111561147857600081556001016114b8565b60008083601f8401126114de57600080fd5b50813567ffffffffffffffff8111156114f657600080fd5b6020830191508360208260051b850101111561099c57600080fd5b6000806000806000806060878903121561152a57600080fd5b863567ffffffffffffffff8082111561154257600080fd5b61154e8a838b016114cc565b9098509650602089013591508082111561156757600080fd5b6115738a838b016114cc565b9096509450604089013591508082111561158c57600080fd5b818901915089601f8301126115a057600080fd5b8135818111156115af57600080fd5b8a60208285010111156115c157600080fd5b6020830194508093505050509295509295509295565b600080602083850312156115ea57600080fd5b823567ffffffffffffffff81111561160157600080fd5b61160d858286016114cc565b90969095509350505050565b6000815180845260005b8181101561163f57602081850181015186830182015201611623565b506000602082860101526020601f19601f83011685010191505092915050565b821515815260406020820152600061167a6040830184611619565b949350505050565b6000806000806040858703121561169857600080fd5b843567ffffffffffffffff808211156116b057600080fd5b6116bc888389016114cc565b909650945060208701359150808211156116d557600080fd5b506116e2878288016114cc565b95989497509550505050565b600081518084526020808501945080840160005b8381101561171e57815187529582019590820190600101611702565b509495945050505050565b60208152600061173c60208301846116ee565b9392505050565b60006020828403121561175557600080fd5b5035919050565b83815282602082015260606040820152600061177b6060830184611619565b95945050505050565b80356001600160a01b038116811461179b57600080fd5b919050565b6000602082840312156117b257600080fd5b61173c82611784565b600080600080608085870312156117d157600080fd5b843593506020850135925060408501359150606085013580151581146117f657600080fd5b939692955090935050565b6000806040838503121561181457600080fd5b61181d83611784565b946020939093013593505050565b600081518084526020808501945080840160005b8381101561171e5781516001600160a01b03168752958201959082019060010161183f565b60006020808352835181840152808401516040840152604084015160a0606085015261189360c085018261182b565b6060860151601f1986830381016080880152815180845291850193506000929091908501905b808410156118d957845182529385019360019390930192908501906118b9565b5060808801519450818782030160a08801526118f58186611619565b98975050505050505050565b634e487b7160e01b600052601160045260246000fd5b8082018082111561192a5761192a611901565b92915050565b634e487b7160e01b600052603260045260246000fd5b60006001820161195857611958611901565b5060010190565b634e487b7160e01b600052604160045260246000fd5b600181811c9082168061198957607f821691505b6020821081036119a957634e487b7160e01b600052602260045260246000fd5b50919050565b601f8211156119f557600081815260208120601f850160051c810160208610156119d65750805b601f850160051c820191505b818110156107d4578281556001016119e2565b505050565b815167ffffffffffffffff811115611a1457611a1461195f565b611a2881611a228454611975565b846119af565b602080601f831160018114611a5d5760008415611a455750858301515b600019600386901b1c1916600185901b1785556107d4565b600085815260208120601f198616915b82811015611a8c57888601518255948401946001909101908401611a6d565b5085821015611aaa5787850151600019600388901b60f8161c191681555b5050505050600190811b01905550565b8181038181111561192a5761192a611901565b81835281816020850137506000828201602090810191909152601f909101601f19169091010190565b888152602080820189905260a0604083018190528201879052600090889060c08401835b8a811015611b46576001600160a01b03611b3385611784565b1682529282019290820190600101611b1a565b5084810360608601528781526001600160fb1b03881115611b6657600080fd5b8760051b92508289838301379091018381038201608085015290611b8d8183018688611acd565b9c9b505050505050505050505050565b84815283602082015260a060408201526000611bbc60a083018561182b565b8281036060840152611bce81856116ee565b8381036080909401939093525050601881527f4175746f20726562616c616e63652074726967676572656400000000000000006020820152604001949350505050565b600082611c2e57634e487b7160e01b600052601260045260246000fd5b50049056fe506572666f726d616e636520616e616c7973697320737567676573747320726562616c616e63696e67a2646970667358221220034b25fb4913d01e4953ac5c2de8dd2470e963152b28f0a903195a94b0572e7164736f6c63430008130033",
  "linkReferences": {},
  "deployedLinkReferences": {}
}